:020000040800F2
:10900000B8030120AD9200089196000889960008E7
:109010008D96000881960008059E0008000000005B
:109020000000000000000000000000007197000830
:1090300085960008000000006D970008119D00084B
:10904000C7920008C7920008C7920008C79200089C
:10905000C7920008C7920008C7920008C79200088C
:10906000C7920008C7920008C7920008C79200087C
:10907000C7920008C7920008C7920008C79200086C
:10908000C7920008C7920008C7920008C79200085C
:10909000C7920008C7920008C7920008C79200084C
:1090A000C7920008C7920008C7920008C79200083C
:1090B000C7920008C7920008C7920008C79200082C
:1090C000C7920008C7920008C7920008C79200081C
:1090D000C7920008019E0008C7920008C7920008C6
:1090E000C7920008C7920008C7920008C7920008FC
:1090F000C7920008C7920008C7920008C7920008EC
:10910000C7920008C7920008C7920008C7920008DB
:10911000C7920008C7920008C7920008C7920008CB
:10912000C7920008C7920008C7920008C7920008BB
:10913000C7920008C7920008C7920008C7920008AB
:10914000C7920008C7920008C7920008C79200089B
:10915000C7920008C792000800000000C7920008EC
:10916000C7920008C792000800000000000000003D
:10917000C7920008C7920008C792000800000000CC
:1091800000000000C7920008C7920008C7920008BC
:10919000C79200080000000000000000000000006E
:1091A000000000000000000000000000C79200085E
:1091B000C792000800000000C792000800000000ED
:1091C000000000000000000000000000000000009F
:1091D0000000000000000000C7920008C7920008CD
:1091E000C7920008C7920008C7920008C7920008FB
:1091F000C7920008C7920008C7920008C7920008EB
:10920000C7920008C7920008C792000800F002F851
:1092100000F03CF80AA090E8000C82448344AAF1D4
:109220000107DA4501D100F031F8AFF2090EBAE8D2
:109230000F0013F0010F18BFFB1A43F0010318478A
:109240005443000074430000103A24BF78C878C12A
:10925000FAD8520724BF30C830C144BF04680C603C
:10926000704700000023002400250026103A28BF84
:1092700078C1FBD8520728BF30C148BF0B60704788
:109280001FB504F021F91FBD10B510BD00F0F2F8B4
:109290001146FFF7F5FF02F031FD00F010F903B4BD
:1092A000FFF7F2FF03BC00F017F900000948804700
:1092B00009480047FEE7FEE7FEE7FEE7FEE7FEE7B8
:1092C000FEE7FEE7FEE7FEE704480549054A064BD0
:1092D00070470000499D00080D920008B801002069
:1092E000B8030120B8030020B803002053EA020CA1
:1092F00000F069802DE9F04B4FF00006002B1FBFF6
:10930000B3FA83F503FA05F424FA05F65E4012BFBA
:109310001643B2FA82F502FA05F4C5F120051EBF24
:1093200022FA05FC44EA0C04203556EA044C4FEAC4
:10933000144418BF641C4FF000084FF0000990421D
:1093400071EB030C39D3002919BFB1FA81F701FA87
:1093500007F6B0FA80F700FA07F6C7F120071EBF3C
:1093600020FA07FC46EA0C062037B6FBF4FCA7EB14
:109370000507103F07F01F0BCBF120062CFA06F66D
:109380000CFA0BFB44BFB3460026202FA4BF5E4659
:109390004FF0000B5BEA060C08BF4FF0010B19EB16
:1093A0000B0948EB0608ABFB027C06FB02CC0BFB6F
:1093B00003CCC01B71EB0C01C1E70B4602464146D2
:1093C0004846BDE8F08B13B5084318BF4FF0FF3097
:1093D0000146AFF30080BDE81C4070474FF000022B
:1093E0000429C0F0128010F0030C00F01B80CCF1B7
:1093F000040CBCF1020F18BF00F8012BA8BF20F825
:10940000022BA1EB0C0100F00DB85FEAC17C24BF78
:1094100000F8012B00F8012B48BF00F8012B704722
:109420004FF0000200B5134694469646203922BFFD
:10943000A0E80C50A0E80C50B1F12001BFF4F7AF48
:10944000090728BFA0E80C5048BF0CC05DF804EB2A
:10945000890028BF40F8042B08BF704748BF20F898
:10946000022B11F0804F18BF00F8012B7047704796
:1094700070477047754600F02BF8AE460500694608
:10948000534620F00700854618B020B5FFF71CFFB3
:10949000BDE820404FF000064FF000074FF00008F5
:1094A0004FF0000BAC46ACE8C009ACE8C009ACE832
:1094B000C009ACE8C00921F007018D46704710B51E
:1094C0000446AFF300802046BDE81040FFF7E7BE3A
:1094D000004870470800002001491820ABBEFEE795
:1094E000260002007047000080B586B048F2B02127
:1094F000C4F24021039101200490086000200290F2
:109500008DF817000860802000F088F8029800F0BD
:1095100085F80399024604988DF8172008609DF895
:109520001700E52801D0FFE711E02C200B21019165
:1095300000F08AF82E20002100F086F82D20082166
:1095400000F082F80199312000F07EF8FFE706B0C4
:1095500080BD000080B582B048F2B021C4F2402145
:10956000002000900860F22000F058F80098019068
:10957000FFE7019805280EDCFFE7002000F04EF819
:10958000019A40F2A811C2F200018854FFE7019845
:1095900001300190EDE748F2B021C4F240210120F2
:1095A000086040F2A813C2F200031878597840EA24
:1095B0000121312010FB01F100EE101AB8EEC00AB3
:1095C0009FED151A80EE010A10EE102A40F2CC0130
:1095D000C2F20001CA609A7893F803C042EA0C22F2
:1095E00010FB02F200EE102AB8EEC00A80EE010A6B
:1095F00010EE102A0A611A795B7942EA032210FB05
:1096000002F000EE100AB8EEC00A80EE010A10EE79
:10961000100A486102B080BD00007A4480B582B073
:109620008DF8070000208DF806009DF8071043F61E
:109630000000C4F2000000F09DFF8DF806009DF8C8
:10964000060002B080BD000080B582B08DF8070032
:109650008DF8061048F2B021C4F24021009100209C
:1096600008609DF8070000F07F00FFF7D7FF9DF826
:109670000600FFF7D3FF00990120086002B080BD0B
:10968000FFE7FEE770470000FFE7FEE7FFE7FEE7C2
:109690007047000088B0079006910592079800F087
:1096A000070004900498C0F10700052803D3FFE7E2
:1096B0000420019004E00498C0F107000190FFE746
:1096C0000198039004980430062803D8FFE700208F
:1096D000009003E0049803380090FFE700980290A0
:1096E00006980399012202FA01F101390840029B10
:1096F000984005999A40013A1140084308B07047D4
:1097000088B0079006910592079800F00700049032
:109710000498C0F10700052803D3FFE70420019057
:1097200004E00498C0F107000190FFE7019803905E
:1097300004980430062803D8FFE70020009003E0D7
:10974000049803380090FFE7009802900698039968
:10975000012202FA01F101390840029B9840059963
:109760009A40013A1140084308B070477047000022
:109770007047000080B5D6B08DED550ACDED540A86
:109780008DED531A5290519150924F934F9800285B
:1097900040F08880FFE700204B904A9049904DF2BE
:1097A000EC42C0F6000210685168926848924791F6
:1097B00046903DA82421FFF733FE4FF07E503D90A8
:1097C000419045909DED550A9DED461A80EE010AA7
:1097D0009DED491A30EE410A8DED4E0A9DED540A79
:1097E0009DED471A80EE010A9DED4A1A30EE410ABE
:1097F0008DED4D0A9DED530A9DED481A80EE010A4C
:109800009DED4B1A30EE410A8DED4C0A9DED4E3A1E
:109810009DED3D0A9DED3E2A9DED3F1A20EE030A87
:109820009DED4D3A22EE032A30EE020A9DED4C2AC0
:1098300021EE021A30EE010A529880ED000A9DEDE9
:109840004E3A9DED400A9DED412A9DED421A20EED3
:10985000030A9DED4D3A22EE032A30EE020A9DEDF9
:109860004C2A21EE021A30EE010A519880ED000ACE
:109870009DED4E3A9DED430A9DED442A9DED451A1E
:1098800020EE030A9DED4D3A22EE032A30EE020A45
:109890009DED4C2A21EE021A30EE010A509880ED1F
:1098A000000A33E24F98012840F08880FFE700204B
:1098B0003C903B903A904DF2F842C0F6000210689E
:1098C000516892683992389137902EA82421FFF779
:1098D000A7FD4FF07E502E90329036909DED550AA8
:1098E0009DED371A80EE010A9DED3A1A30EE410ADD
:1098F0008DED4E0A9DED540A9DED381A80EE010A59
:109900009DED3B1A30EE410A8DED4D0A9DED530A57
:109910009DED391A80EE010A9DED3C1A30EE410AA8
:109920008DED4C0A9DED4E3A9DED2E0A9DED2F2AB0
:109930009DED301A20EE030A9DED4D3A22EE032AEA
:1099400030EE020A9DED4C2A21EE021A30EE010A99
:10995000529880ED000A9DED4E3A9DED310A9DED45
:10996000322A9DED331A20EE030A9DED4D3A22EE88
:10997000032A30EE020A9DED4C2A21EE021A30EE47
:10998000010A519880ED000A9DED4E3A9DED340A92
:109990009DED352A9DED361A20EE030A9DED4D3AD8
:1099A00022EE032A30EE020A9DED4C2A21EE021A25
:1099B00030EE010A509880ED000AA6E14F98022887
:1099C00040F08880FFE700202D902C902B904DF2E6
:1099D0000452C0F600021068516892682A922991D8
:1099E00028901FA82421FFF71BFD4FF07E501F90E9
:1099F000239027909DED550A9DED281A80EE010ACF
:109A00009DED2B1A30EE410A8DED4E0A9DED540A64
:109A10009DED291A80EE010A9DED2C1A30EE410AC7
:109A20008DED4D0A9DED530A9DED2A1A80EE010A37
:109A30009DED2D1A30EE410A8DED4C0A9DED4E3A0A
:109A40009DED1F0A9DED202A9DED211A20EE030AAF
:109A50009DED4D3A22EE032A30EE020A9DED4C2A8E
:109A600021EE021A30EE010A529880ED000A9DEDB7
:109A70004E3A9DED220A9DED232A9DED241A20EEFB
:109A8000030A9DED4D3A22EE032A30EE020A9DEDC7
:109A90004C2A21EE021A30EE010A519880ED000A9C
:109AA0009DED4E3A9DED250A9DED262A9DED271A46
:109AB00020EE030A9DED4D3A22EE032A30EE020A13
:109AC0009DED4C2A21EE021A30EE010A509880EDED
:109AD000000A19E14F98032840F08880FFE7002032
:109AE0001E901D901C904DF21052C0F6000210689E
:109AF000516892681B921A91199010A82421FFF7BF
:109B00008FFC4FF07E501090149018909DED550AE8
:109B10009DED191A80EE010A9DED1C1A30EE410AE6
:109B20008DED4E0A9DED540A9DED1A1A80EE010A44
:109B30009DED1D1A30EE410A8DED4D0A9DED530A43
:109B40009DED1B1A80EE010A9DED1E1A30EE410AB2
:109B50008DED4C0A9DED4E3A9DED100A9DED112ABA
:109B60009DED121A20EE030A9DED4D3A22EE032AD6
:109B700030EE020A9DED4C2A21EE021A30EE010A67
:109B8000529880ED000A9DED4E3A9DED130A9DED31
:109B9000142A9DED151A20EE030A9DED4D3A22EE92
:109BA000032A30EE020A9DED4C2A21EE021A30EE15
:109BB000010A519880ED000A9DED4E3A9DED160A7E
:109BC0009DED172A9DED181A20EE030A9DED4D3AE2
:109BD00022EE032A30EE020A9DED4C2A21EE021AF3
:109BE00030EE010A509880ED000A8CE04F9804286E
:109BF00040F08880FFE700200F900E900D904DF20E
:109C00001C52C0F600021068516892680C920B91C9
:109C10000A9001A82421FFF703FC4FF07E50019029
:109C2000059009909DED550A9DED0A1A80EE010AF6
:109C30009DED0D1A30EE410A8DED4E0A9DED540A50
:109C40009DED0B1A80EE010A9DED0E1A30EE410AD1
:109C50008DED4D0A9DED530A9DED0C1A80EE010A23
:109C60009DED0F1A30EE410A8DED4C0A9DED4E3AF6
:109C70009DED010A9DED022A9DED031A20EE030AD7
:109C80009DED4D3A22EE032A30EE020A9DED4C2A5C
:109C900021EE021A30EE010A529880ED000A9DED85
:109CA0004E3A9DED040A9DED052A9DED061A20EE23
:109CB000030A9DED4D3A22EE032A30EE020A9DED95
:109CC0004C2A21EE021A30EE010A519880ED000A6A
:109CD0009DED4E3A9DED070A9DED082A9DED091A6E
:109CE00020EE030A9DED4D3A22EE032A30EE020AE1
:109CF0009DED4C2A21EE021A30EE010A509880EDBB
:109D0000000AFFE7FFE7FFE7FFE7FFE756B080BD88
:109D100080B503F04DFA40F2B510C2F200000178B0
:109D200001310170007805280DD1FFE740F2B5112F
:109D3000C2F200010020087040F2B411C2F200012A
:109D400001200870FFE780BD4EF68851CEF2000179
:109D5000086840F47000086043F60001C4F2020194
:109D6000086840F001000860FFE743F60000C4F215
:109D7000020000684008C00708B9FFE7F5E743F6AE
:109D80000801C4F20201086820F003000860FFE740
:109D900043F60800C4F2020000688008800708B19A
:109DA000FFE7F5E743F60001C4F2020108684FF649
:109DB000FF72CFF6F2621040086043F60801C4F269
:109DC00002010020086043F60402C4F2020243F2DA
:109DD0000201C0F20301116043F6A001C4F20201C6
:109DE000086043F60C01C4F202014FF41F00086042
:109DF0004EF60851CEF200014FF000600860704747
:109E000070470000FFE7FEE781B08DF803009DF981
:109E1000030000280ED4FFE79DF9031001F01F0294
:109E2000012090404A094EF20011CEF2000141F8A3
:109E30002200FFE701B070474EF60C50CEF2000052
:109E40000068C0F3022070474EF60C50CEF20000BE
:109E50000068C0F30220704782B08DF807000091BF
:109E60009DF9070000280AD4FFE7009800019DF93A
:109E700007104EF20042CEF2000288540BE0009828
:109E800000019DF8071001F00F014EF61452CEF2BA
:109E900000028854FFE702B07047000082B08DF8DE
:109EA000070000919DF9070000280AD4FFE70098F9
:109EB00000019DF907104EF20042CEF200028854D4
:109EC0000BE0009800019DF8071001F00F014EF61D
:109ED0001452CEF200028854FFE702B0704700002F
:109EE00083B00290029800F0070000904EF60C51EB
:109EF000CEF200010868019001984FF6FF02104071
:109F000001900198009A40EA02200022C0F2FA5221
:109F1000104301900198086003B0704780B584B089
:109F200003908DF80B100192FF208DF80300039829
:109F30009DF80B1000F01EFB03989DF8031000F035
:109F400019FB0199087004B080BD000080B582B093
:109F500001908DF803108DF8022001989DF80310F0
:109F600000F008FB01989DF8021000F003FB02B01E
:109F700080BD000080B588B0079006918DF817204D
:109F800007989DF817106A461160202102AA0E2337
:109F900000F052F99DF808009DF8091040EA0120F0
:109FA00000B200EE100AB8EEC00A9FED3F1A80EE34
:109FB000010AB3EE091A30EE010A069880ED060A8E
:109FC0009DF80A009DF80B1040EA012000B200EE57
:109FD000100AB8EEC00A9FED352A20EE020A9FED66
:109FE000341A80EE010A069880ED030A9DF80C00F1
:109FF0009DF80D1040EA012000B200EE100AB8EE04
:10A00000C00A20EE020A80EE010A069880ED040ADA
:10A010009DF80E009DF80F1040EA012000B200EEFE
:10A02000100AB8EEC00A20EE020A80EE010A069875
:10A0300080ED050A9DF810009DF8111040EA0120FE
:10A0400000B200EE100AB8EEC00A9FED1A2A20EE08
:10A05000020A80EE010A069880ED000A9DF81200BF
:10A060009DF8131040EA012000B200EE100AB8EE8D
:10A07000C00A20EE020A80EE010A069880ED010A6D
:10A080009DF814009DF8151040EA012000B200EE82
:10A09000100AB8EEC00A20EE020A80EE010A069805
:10A0A00080ED020A08B080BD0000804300008C41B2
:10A0B00000007A4423DBF93E80B584B00120029091
:10A0C000FFE7029804281EDCFFE700208DF8070058
:10A0D0009DF8083043F20000C4F201000F210DF199
:10A0E000070200F075F99DF807006B2803D0FFE721
:10A0F000029803900AE0052002F0BAFDFFE70298FB
:10A1000001300290DDE700200390FFE7039804B0E0
:10A1100080BD000080B588B040F28421C4F24021A7
:10A120000120086040F28821C4F24021086040F21A
:10A130008C21C4F24021086040F29021C4F24021F9
:10A140000860FFF7B9FF20B1FFE701208DF81F007D
:10A150006DE043F20000C4F201000390122104916B
:10A16000012305931A4600F09DF903980499059A76
:10A17000022300F097F903980499059A032300F04D
:10A1800091F903980499059A042300F08BF90A20A9
:10A1900002F06EFD05980690FFE70698042842DC61
:10A1A000FFE79DF8183043F20000C4F2010001906F
:10A1B0001221442200F076F901989DF81830102100
:10A1C000542200F06FF901989DF8183011215022A7
:10A1D00000F068F901989DF818301321022200F070
:10A1E00061F901989DF8183014210022029200F0C4
:10A1F00059F90198029A9DF81830152100F052F98A
:10A200000198029A9DF81830162100F04BF9019838
:10A21000029A9DF81830172100F044F9FFE70698DC
:10A2200001300690B9E700208DF81F00FFE79DF888
:10A230001F0008B080BD000080B58EB08446109825
:10A24000CDF834C08DF833100B928DF82B308DF88B
:10A250002A00FF208DF829009DF82A0001380146C8
:10A260000591032800F2B1800599DFE801F0022D85
:10A27000588340F28421C4F24021002004900860F9
:10A280000D989DF8331041F0800100F073F90498A7
:10A290000990FFE709989DF82B1088420DDAFFE737
:10A2A0000D989DF8291000F065F90B99099A8854CA
:10A2B000FFE7099801300990ECE740F28421C4F2ED
:10A2C00040210120086081E040F28821C4F2402151
:10A2D0000020039008600D989DF8331041F0800134
:10A2E00000F048F903980890FFE708989DF82B10B4
:10A2F00088420DDAFFE70D989DF8291000F03AF931
:10A300000B99089A8854FFE7089801300890ECE709
:10A3100040F28821C4F240210120086056E040F25A
:10A320008C21C4F240210020029008600D989DF815
:10A33000331041F0800100F01DF902980790FFE70B
:10A3400007989DF82B1088420DDAFFE70D989DF8CD
:10A35000291000F00FF90B99079A8854FFE7079826
:10A3600001300790ECE740F28C21C4F2402101203B
:10A3700008602BE040F29021C4F2402100200190BF
:10A3800008600D989DF8331041F0800100F0F2F85C
:10A3900001980690FFE706989DF82B1088420DDA89
:10A3A000FFE70D989DF8291000F0E4F80B99069A44
:10A3B0008854FFE7069801300690ECE740F29021C0
:10A3C000C4F240210120086000E0FFE70EB080BD2C
:10A3D00080B58AB009908DF8231007928DF81B3054
:10A3E000FF208DF81A0000208DF819009DF81B0041
:10A3F000013801460591032850D80599DFE801F09E
:10A400000215283B40F28421C4F24021049100202F
:10A41000086009989DF8231041F08001079AFFF722
:10A420007DFD04990120086039E040F28821C4F2E2
:10A43000402103910020086009989DF8231041F005
:10A440008001079AFFF76AFD03990120086026E062
:10A4500040F28C21C4F2402102910020086009984A
:10A460009DF8231041F08001079AFFF757FD0299EC
:10A470000120086013E040F29021C4F240210191D4
:10A480000020086009989DF8231041F08001079A88
:10A49000FFF744FD01990120086000E0FFE70AB0E2
:10A4A00080BD000080B588B007908DF81B108DF836
:10A4B0001A208DF819309DF81900013801460591D0
:10A4C000032854D80599DFE801F002162A3E40F22D
:10A4D0008421C4F2402104910020086007989DF86F
:10A4E0001B1001F07F019DF81A20FFF72FFD049942
:10A4F000012008603CE040F28821C4F24021039131
:10A500000020086007989DF81B1001F07F019DF85E
:10A510001A20FFF71BFD03990120086028E040F294
:10A520008C21C4F2402102910020086007989DF818
:10A530001B1001F07F019DF81A20FFF707FD02991B
:10A540000120086014E040F29021C4F24021019102
:10A550000020086007989DF81B1001F07F019DF80E
:10A560001A20FFF7F3FC01990120086000E0FFE7E3
:10A5700008B080BD82B001908DF8031000208DF8E6
:10A580000200FFE7019880684008C00708B9FFE7AC
:10A59000F8E79DF803000199C860FFE7019880681B
:10A5A000C00708B9FFE7F9E70198C0688DF8020015
:10A5B0009DF8020002B0704784B003900291ADF89C
:10A5C000062000200090FFE70098BDF806108842A2
:10A5D00017DAFFE702980099405C03994860FFE7AB
:10A5E000039800688009C00708B9FFE7F8E70399F6
:10A5F000086820F040000860FFE7009801300090F4
:10A60000E2E704B07047000081B08DF803009DF8C8
:10A61000032043F60801C4F20201086802F00F02A9
:10A6200020F0F00040EA0210086001B0704700001E
:10A6300081B08DF803009DF8032043F60801C4F2B1
:10A640000201086802F0070220F4E05040EA82208C
:10A65000086001B07047000081B08DF803009DF8DC
:10A66000032043F60801C4F20201086802F0070261
:10A6700020F4604040EA4230086001B070470000BA
:10A6800081B08DF803009DF80300012809D1FFE790
:10A6900043F6A401C4F20201086840F030000860EB
:10A6A00008E043F6A401C4F20201086820F030007B
:10A6B0000860FFE701B0704782B08DF807008DF8A1
:10A6C00006109DF8070001460091042844D800991F
:10A6D000DFE801F0030E1D2C37009DF8062043F63D
:10A6E0000001C4F20201086862F30000086034E06F
:10A6F0009DF8062043F60001C4F20201086802F04A
:10A70000010220F4803040EA0240086025E09DF814
:10A71000062043F60001C4F20201086802F00102BB
:10A7200020F0807040EA0260086016E09DF8062084
:10A7300043F67001C4F20201086862F30000086089
:10A740000BE09DF8062043F67401C4F2020108688C
:10A7500062F30000086000E0FFE702B0704700000D
:10A7600080B58AB009900020089007900690059067
:10A7700004900390029000F0DBF98DF807009DF83B
:10A7800007000146009140B1FFE70098012825D05D
:10A79000FFE70098022828D05CE043F6A000C4F24E
:10A7A00002000068800BC00780B1FFE743F6A000FD
:10A7B000C4F202000068000BC00738B1FFE7099936
:10A7C00046F60040C0F2DC20086006E0099941F23C
:10A7D0000020C0F27A000860FFE742E0099941F2E8
:10A7E0000020C0F27A0008603BE043F60400C4F2A7
:10A7F00002000168C1F3805105910168C1F388111D
:10A800000891016801F00F0107910068C0F302414F
:10A810004DF26850C0F60000405C0690059830B9D3
:10A82000FFE741F20020C0F27A00049005E041F217
:10A830000020C0F27A000490FFE704980899A0FB7A
:10A840000101079A069B5A430023FEF74FFD099921
:10A85000086006E0099941F20020C0F27A00086021
:10A86000FFE743F60800C4F202000168C1F30311D8
:10A870000391039A4DF26E51C0F60001895C02917A
:10A88000099A1168029BD94051600168C1F3822185
:10A890000391039A4DF25851C0F60001895C029170
:10A8A000099A5168029BD940D1600068C0F34230D8
:10A8B000039003994DF26050C0F60000405C029096
:10A8C00009994868029AD04088600AB080BD0000AB
:10A8D00082B0019000208DF80300BDF8060043F619
:10A8E0000001C4F202014058019901F01F01C84063
:10A8F000C00720B9FFE700208DF8030003E0012026
:10A900008DF80300FFE79DF8030002B070470000D8
:10A9100080B584B0002003908DF80B00FFE7112074
:10A92000FFF7D6FF014600200129019008D0FFE77C
:10A9300003990020B1F5405F38BF01200190FFE787
:10A940000198C00720B1FFE7039801300390E6E7C4
:10A950001120FFF7BDFF012804D0FFE700208DF88C
:10A960000B0003E001208DF80B00FFE79DF80B00C2
:10A9700004B080BD82B001908DF803109DF80300F3
:10A9800001280FD1FFE7019800F01F02012101FA11
:10A9900002F3010C43F60002C4F202028858184385
:10A9A00088500EE0019800F01F02012101FA02F325
:10A9B000010C43F60002C4F2020288589843885002
:10A9C000FFE702B07047000082B08DF80700ADF8D5
:10A9D0000410ADF802208DF801309DF8070048B949
:10A9E000FFE743F6A001C4F20201086840F480507A
:10A9F0000860FFE79DF8072043F60401C4F2020156
:10AA0000086802F0010220F4800040EA82500860E9
:10AA1000BDF8042008686FF35F2247F6C0739843BF
:10AA200040EA82100860BDF80220086862F3030063
:10AA300008609DF80120086802F0070220F4E02079
:10AA400040EA0240086002B07047000043F600018F
:10AA5000C4F20201086840F001000860FFE743F615
:10AA60000000C4F2020000684008C00708B9FFE710
:10AA7000F5E743F60801C4F20201086820F003007C
:10AA80000860FFE743F60800C4F20200006880088F
:10AA9000800708B1FFE7F5E743F60001C4F20201C1
:10AAA00008684FF6FF72CFF6F2621040086043F676
:10AAB0000801C4F202010020086043F60402C4F257
:10AAC000020243F20201C0F20301116043F6A00149
:10AAD000C4F20201086043F60C01C4F202014FF413
:10AAE0001F0008607047000081B08DF803009DF8DA
:10AAF000032043F60801C4F20201086862F3010072
:10AB0000086000BF00BF00BF00BF00BF00BF00BFA4
:10AB100000BF00BF00BF00BF00BF00BF00BF00BF3D
:10AB200000BF00BF00BF00BF00BF01B07047000002
:10AB300043F60800C4F202000068C0F381007047C9
:10AB400080B5BEB00DF11600E221FEF747FC0020F3
:10AB50000090049040F27410C2F2000001680131CC
:10AB60000160EB218DF8161090218DF81710082147
:10AB70008DF8181065218DF81910006802F03FFC5F
:10AB800041EC100B51EC100B02F008FC0146009850
:10AB9000039140F2E801C2F20001CA68CDF81A2020
:10ABA0000A69CDF81E204A69CDF822200A68CDF83E
:10ABB00026204A68CDF82A208A68CDF82E2040F257
:10ABC0000412C2F20002D368CDF832301369CDF816
:10ABD00036305369CDF83A301368CDF83E305368BB
:10ABE000CDF842309268CDF8462040F22012C2F2F1
:10ABF0000002D368CDF84A301369CDF84E3053695E
:10AC0000CDF852301368CDF856305368CDF85A302D
:10AC10009268CDF85E2040F23C12C2F20002D36886
:10AC2000CDF862301369CDF866305369CDF86A30DB
:10AC30001368CDF86E305368CDF872309268CDF855
:10AC4000762040F25812C2F20002D368CDF87A3072
:10AC50001369CDF87E305369CDF882301368CDF892
:10AC600086305368CDF88A309268CDF88E2040F255
:10AC7000CC02C2F20002D368CDF89E301369CDF841
:10AC8000A2305269CDF8A620039ACDF8EE2089694A
:10AC9000CDF8F210ADF80A0002200190FFE701980C
:10ACA000DF280EDCFFE7BDF80A00019A0DF116015E
:10ACB000895C0844ADF80A00FFE701980130019073
:10ACC000EDE7BDF80A008DF8F6009DF80B008DF851
:10ACD000F70041F20040C4F201000DF11601E2223A
:10ACE000FFF76AFC3EB080BD82B001908DF8031082
:10ACF0009DF803200199086862F30000086002B023
:10AD00007047000081B00090009900200860009911
:10AD1000486000990881009948810099087300995A
:10AD20004873009988730099C87300990874009952
:10AD3000487401B07047000082B001900091019901
:10AD400008684BF6EF72104008600098028901997C
:10AD50000868104308600098427C0199086802F076
:10AD6000030220F4405040EA023008600098C27BA1
:10AD70000199086802F0030220F4406040EA822052
:10AD800008600098827B0199086802F0030220F4B1
:10AD9000407040EA022008600098427B01990868F0
:10ADA00002F0010220F0800040EAC2100860009822
:10ADB000027B0199086802F0010220F0400040EA9D
:10ADC000821008600098027C0199086802F0010274
:10ADD00020F0200040EA4210086000984289019962
:10ADE00048684FF6FF739843104448600098006825
:10ADF00001998860009840680199C86002B0704766
:10AE000082B0019000200090019A116821F00101A8
:10AE10001160019908600199486001998860019961
:10AE2000C86001980090009800F4DF60C008C02856
:10AE300018D8FFE79DF8000008384CF6CD41CCF655
:10AE4000CC41A0FB01016FF0030000EA91010F204B
:10AE500000FA01F246F20441C4F20201086810430C
:10AE600008601FE0009800F4DF60C008D02818D800
:10AE7000FFE79DF8000008384CF6CD41CCF6CC41F8
:10AE8000A0FB01016FF0030000EA91010F2000FA1E
:10AE900001F246F20461C4F202010868104308603E
:10AEA000FFE7FFE702B0704782B001908DF8031012
:10AEB0009DF803200199D1F8000162F30000C1F868
:10AEC000000102B07047000082B001908DF80310BD
:10AED0009DF803200199086862F30600086002B03B
:10AEE00070470000B0B59EB000231D9340F2E80EFD
:10AEF000C2F2000ECDF824E00EF1080002909EEDA3
:10AF0000020AB1EE400A8EED020A40F2041CC2F2BF
:10AF1000000CCDF838C00CF1080004909CED020A3A
:10AF2000B1EE400A8CED020A40F22011C2F200019B
:10AF3000139101F10800069091ED020AB1EE400A6A
:10AF400081ED020A40F23C10C2F20000189000F1BC
:10AF50000802089290ED020AB1EE400A80ED020A62
:10AF60000EF114020C929EED050AB1EE400A8EED30
:10AF7000050A0CF1140211929CED050AB1EE400A8B
:10AF80008CED050A01F11402169291ED050AB1EE5D
:10AF9000400A81ED050A00F114021B9290ED050AAA
:10AFA000B1EE400A80ED050A40F2CC02C2F2000286
:10AFB00052F8144F84F000441460DEF800401D94F1
:10AFC0000EF1040401949EED010AB1EE400A8EEDEB
:10AFD000000A9DED1D0AB1EE400A8EED010ADCF873
:10AFE00000401D940CF1040403949CED010AB1EEA1
:10AFF000400A8CED000A9DED1D0AB1EE400A8CED71
:10B00000010A0C681D940C1D059491ED010AB1EE26
:10B01000400A81ED000A9DED1D0AB1EE400A81ED66
:10B02000010A04681D94041D079490ED010AB1EE15
:10B03000400A80ED000A9DED1D0AB1EE400A80ED48
:10B04000010A744654F80C5F0A941D950EF1100520
:10B050000B959EED040AB1EE400A84ED000A9DEDC9
:10B060001D0AB1EE400A8EED040AE6465EF80C4F6A
:10B07000CDF83CE01D940CF1100410949CED040AF2
:10B08000B1EE400A8EED000A9DED1D0AB1EE400AB8
:10B090008CED040A8C465CF80CEFCDF850C0CDF86E
:10B0A00074E001F1100ECDF854E091ED040AB1EE18
:10B0B000400A8CED000A9DED1D0AB1EE400A81EDBB
:10B0C000040A014651F80CCF1991CDF874C000F173
:10B0D000100CCDF868C090ED040AB1EE400A81ED85
:10B0E000000A9DED1D0AB1EE400A80ED040A1046EB
:10B0F00050F8081D1D91114651F804CD8CF0004CFC
:10B10000C0F800C0DDF874C08CF0004CC1F800C07D
:10B11000D0F800C000EE10CAD1F800C000EE90CA0E
:10B12000D2F800C001EE10CAFEF724FB0199029A82
:10B13000099890ED000AD0ED010A90ED021A012362
:10B140000D93FEF717FB0399049A0E9890ED000AF1
:10B15000D0ED010A90ED021A02231293FEF70AFBCA
:10B160000599069A139890ED000AD0ED010A90ED2A
:10B17000021A03231793FEF7FDFA0799089A189805
:10B1800090ED000AD0ED010A90ED021A04231C9301
:10B19000FEF7F0FADDF824C00A980B990C9A0D9B83
:10B1A00090ED000ADCED040A9CED051A00F04CFB62
:10B1B000DDF838C00F981099119A129B90ED000A93
:10B1C000DCED040A9CED051A00F03EFBDDF84CC0F6
:10B1D00014981599169A179B90ED000ADCED040A55
:10B1E0009CED051A00F030FBDDF860C019981A9943
:10B1F0001B9A1C9B90ED000ADCED040A9CED051ADD
:10B2000000F022FB1EB0B0BD81B003208DF803001A
:10B2100043F60C40C4F202000068C00720B1FFE70B
:10B2200000208DF803001FE043F60C40C4F202003A
:10B2300000688008C00720B1FFE701208DF80300F7
:10B2400011E043F60C40C4F2020000680009C00798
:10B2500020B1FFE702208DF8030003E003208DF802
:10B260000300FFE7FFE7FFE79DF8030001B0704729
:10B2700080B584B0039003208DF80B00FFF7C4FF66
:10B280008DF80B00FFE79DF80B100020019031B9FD
:10B29000FFE70398002818BF01200190FFE70198FD
:10B2A000C00740B1FFE7FFF7AFFF8DF80B00039831
:10B2B00001380390E7E7039820B9FFE704208DF8F1
:10B2C0000B00FFE79DF80B0004B080BD81B00320A8
:10B2D0008DF8030043F64C40C4F202000068C0073A
:10B2E00020B1FFE700208DF803001FE043F64C403B
:10B2F000C4F2020000688008C00720B1FFE7012007
:10B300008DF8030011E043F64C40C4F202000068DF
:10B310000009C00720B1FFE702208DF8030003E019
:10B3200003208DF80300FFE7FFE7FFE79DF8030028
:10B3300001B0704780B584B0039003208DF80B00F6
:10B34000FFF7C4FF8DF80B00FFE79DF80B100020FE
:10B35000019031B9FFE70398002818BF0120019040
:10B36000FFE70198C00740B1FFE7FFF7AFFF8DF897
:10B370000B00039801380390E7E7039820B9FFE733
:10B3800004208DF80B00FFE79DF80B0004B080BD92
:10B3900080B584B003908DF80B1003208DF80A005F
:10B3A0000398B0F1006F1ED3FFE70398400D4028CB
:10B3B00019D8FFE743F61041C4F202010191086871
:10B3C00040F0010008609DF80B00039908704FF4ED
:10B3D0008010FFF74DFF01998DF80A00086820F0F2
:10B3E0000100086026E00398B0F1026F21D3FFE767
:10B3F00003984FF6FF71C0F63E01884219D8FFE767
:10B4000043F65041C4F202010091086840F0010087
:10B4100008609DF80B00039908704FF48010FFF747
:10B4200089FF00998DF80A00086820F00100086083
:10B43000FFE7FFE79DF80A0004B080BD80B584B047
:10B440000390ADF80A1003208DF809000398B0F1BD
:10B45000006F1ED3FFE70398400D402819D8FFE77F
:10B4600043F61041C4F202010191086840F0010066
:10B470000860BDF80A00039908804FF48010FFF7B8
:10B48000F7FE01998DF80900086820F001000860B6
:10B4900026E00398B0F1026F21D3FFE703984FF63F
:10B4A000FF71C0F63E01884219D8FFE743F65041CC
:10B4B000C4F202010091086840F001000860BDF884
:10B4C0000A00039908804FF48010FFF733FF0099BA
:10B4D0008DF80900086820F001000860FFE7FFE729
:10B4E0009DF8090004B080BD43F61041C4F202018A
:10B4F000086840F08000086043F65041C4F2020141
:10B50000086840F0800008607047000080B584B093
:10B51000039003208DF80B000398B0F1006F24D343
:10B52000FFE70398400D40281FD8FFE743F610417E
:10B53000C4F202010191086840F00200086003981B
:10B5400043F61442C4F202021060086840F0400062
:10B5500008604FF00040FFF78BFE01998DF80B005B
:10B56000086820F0020008602CE00398B0F1026F38
:10B5700027D3FFE703984FF6FF71C0F63E018842DC
:10B580001FD8FFE743F65041C4F20201009108685A
:10B5900040F002000860039843F65442C4F20202ED
:10B5A0001060086840F0400008604FF00040FFF76E
:10B5B000C1FE00998DF80B00086820F002000860B9
:10B5C000FFE7FFE79DF80B0004B080BD43F60441A0
:10B5D000C4F2020140F22312C4F267520A6048F634
:10B5E000AB10CCF6EF50086043F64441C4F20201C0
:10B5F0000A6008607047000080B586B0059004912D
:10B6000003208DF80F000598B0F1006F1DD3FFE700
:10B610000598400D402818D8FFE743F61041C4F2C2
:10B6200002010291086840F0010008600498059941
:10B6300008604FF48010FFF71BFE02998DF80F0091
:10B64000086820F00100086025E00598B0F1026F5D
:10B6500020D3FFE705984FF6FF71C0F63E01884200
:10B6600018D8FFE743F65041C4F20201019108687F
:10B6700040F0010008600498059908604FF48010BC
:10B68000FFF758FE01998DF80F00086820F00100BF
:10B690000860FFE7FFE79DF80F0006B080BD0000DF
:10B6A00082B00190ADF80210BDF8020001998861E6
:10B6B00002B0704781B0009000994FF6FF700860AB
:10B6C00000990020887100990871009948710099CB
:10B6D0000120C87101B0704783B002900191002031
:10B6E000ADF8000001980068ADF80200FFE7BDF872
:10B6F0000200012862DBFFE7BDF80200C007002856
:10B7000051D0FFE7BDF800004100032000FA01F32B
:10B71000029A11689943116001998979BDF8002056
:10B72000520001FA02F3029A116819431160BDF840
:10B730000020012101FA02F3029A516899435160F5
:10B7400001990979BDF8002001FA02F3029A5168C3
:10B7500019435160BDF80010490000FA01F3029A44
:10B760009168994391600199C979BDF80020520010
:10B7700001FA02F3029A916819439160BDF8001032
:10B78000490000FA01F20299C8689043C860019824
:10B790004079BDF80010490000FA01F20299C8682A
:10B7A0001043C860FFE7BDF802004008ADF8020092
:10B7B000BDF800000130ADF8000098E703B0704715
:10B7C00084B003908DF80B108DF80A2000200190B2
:10B7D00000909DF80A109DF80B2002F007029200DD
:10B7E000914001919DF80B10B0EBD10F15D0FFE700
:10B7F0009DF80B0000F0070081000F2000FA01F215
:10B800000399486A904348620398406A0199084343
:10B81000009000980399486214E09DF80B0000F036
:10B82000070081000F2000FA01F20399086A904393
:10B8300008620398006A01990843009000980399F0
:10B840000862FFE704B0704780B5CAB08DED490AC1
:10B85000CDED480A8DED471A4690459144924393A9
:10B860004398012840F08E80FFE700203C903B90F9
:10B870003A904DF22852C0F6000210685168926862
:10B880003992389137902EA82421FDF7C9FD4FF049
:10B890007E502E90329036909DED490A9DED371ADC
:10B8A00080EE010A9DED3A1A30EE410A8DED420A12
:10B8B0009DED480A9DED381A80EE010A9DED3B1A78
:10B8C00030EE410A8DED410A9DED470A9DED391A92
:10B8D00080EE010A9DED3C1A30EE410A8DED400AE2
:10B8E0009DED423A9DED2E0A9DED2F2A9DED301AD9
:10B8F00020EE030A9DED413A22EE032A30EE020AC1
:10B900009DED402A21EE021A30EE010A8DED3F0A2C
:10B910009DED423A9DED310A9DED322A9DED331A9F
:10B9200020EE030A9DED413A22EE032A30EE020A90
:10B930009DED402A21EE021A30EE010A8DED3E0AFD
:10B940009DED423A9DED340A9DED352A9DED361A66
:10B9500020EE030A9DED413A22EE032A30EE020A60
:10B960009DED402A21EE021A30EE010A8DED3D0ACE
:10B970003F98469908603E98459908603D984499DB
:10B980000860B8E14398022840F08E80FFE700206D
:10B990002D902C902B904DF23452C0F6000210687E
:10B9A000516892682A92299128901FA82421FDF7B6
:10B9B00037FD4FF07E501F90239027909DED490A50
:10B9C0009DED281A80EE010A9DED2B1A30EE410AFA
:10B9D0008DED420A9DED480A9DED291A80EE010A7F
:10B9E0009DED2C1A30EE410A8DED410A9DED470A7E
:10B9F0009DED2A1A80EE010A9DED2D1A30EE410AC6
:10BA00008DED400A9DED423A9DED1F0A9DED202AE5
:10BA10009DED211A20EE030A9DED413A22EE032A04
:10BA200030EE020A9DED402A21EE021A30EE010AA4
:10BA30008DED3F0A9DED423A9DED220A9DED232AB0
:10BA40009DED241A20EE030A9DED413A22EE032AD1
:10BA500030EE020A9DED402A21EE021A30EE010A74
:10BA60008DED3E0A9DED423A9DED250A9DED262A7B
:10BA70009DED271A20EE030A9DED413A22EE032A9E
:10BA800030EE020A9DED402A21EE021A30EE010A44
:10BA90008DED3D0A3F98469908603E9845990860AB
:10BAA0003D984499086025E14398032840F08E8032
:10BAB000FFE700201E901D901C904DF24052C0F6F2
:10BAC00000021068516892681B921A91199010A890
:10BAD0002421FDF7A5FC4FF07E5010901490189093
:10BAE0009DED490A9DED191A80EE010A9DED1C1A83
:10BAF00030EE410A8DED420A9DED480A9DED1A1A7D
:10BB000080EE010A9DED1D1A30EE410A8DED410ACD
:10BB10009DED470A9DED1B1A80EE010A9DED1E1A50
:10BB200030EE410A8DED400A9DED423A9DED100A3E
:10BB30009DED112A9DED121A20EE030A9DED413A6A
:10BB400022EE032A30EE020A9DED402A21EE021A6F
:10BB500030EE010A8DED3F0A9DED423A9DED130A4C
:10BB60009DED142A9DED151A20EE030A9DED413A34
:10BB700022EE032A30EE020A9DED402A21EE021A3F
:10BB800030EE010A8DED3E0A9DED423A9DED160A1A
:10BB90009DED172A9DED181A20EE030A9DED413AFE
:10BBA00022EE032A30EE020A9DED402A21EE021A0F
:10BBB00030EE010A8DED3D0A3F98469908603E98A7
:10BBC000459908603D984499086092E0439804289C
:10BBD00040F08E80FFE700200F900E900D904DF208
:10BBE0004C52C0F600021068516892680C920B919A
:10BBF0000A9001A82421FDF713FC4FF07E5001901C
:10BC0000059009909DED490A9DED0A1A80EE010A02
:10BC10009DED0D1A30EE410A8DED420A9DED480A68
:10BC20009DED0B1A80EE010A9DED0E1A30EE410AD1
:10BC30008DED410A9DED470A9DED0C1A80EE010A3B
:10BC40009DED0F1A30EE410A8DED400A9DED423A0E
:10BC50009DED010A9DED022A9DED031A20EE030AD7
:10BC60009DED413A22EE032A30EE020A9DED402A74
:10BC700021EE021A30EE010A8DED3F0A9DED423AA7
:10BC80009DED040A9DED052A9DED061A20EE030A9E
:10BC90009DED413A22EE032A30EE020A9DED402A44
:10BCA00021EE021A30EE010A8DED3E0A9DED423A78
:10BCB0009DED070A9DED082A9DED091A20EE030A65
:10BCC0009DED413A22EE032A30EE020A9DED402A14
:10BCD00021EE021A30EE010A8DED3D0A3F98469999
:10BCE00008603E98459908603D9844990860FFE7D0
:10BCF000FFE7FFE7FFE74AB080BD0000B0B592B0B4
:10BD000000200E9011904EF60851CEF2000149F23B
:10BD10000000C0F60000086062B600F069F901F0AA
:10BD2000CFF901F0B9F801F09FF801F04DFA00F0F9
:10BD3000B9FF0E9B46F20840C4F202000D9041F29A
:10BD40000401C4F201011A4601F00EF80D98012118
:10BD50001091FEF7C9FF0E9B46F21C40C4F2020090
:10BD60000F9041F20441C4F201011A4600F0FCFFB9
:10BD70000F981099FEF7B8FF01F054FA01F0C0F8DF
:10BD800001F004F8FEF7C6F9FDF7AEFBFFE740F25D
:10BD9000E801C2F20001029143F20000C4F2010086
:10BDA00001900122FEF7E6F8019840F20411C2F278
:10BDB000000105910222FEF7DDF8019840F2201102
:10BDC000C2F2000103910322FEF7D4F8019840F279
:10BDD0003C11C2F20001049104220B92FEF7CAF852
:10BDE000FDF7B8FBFFF77EF8029BDDF80CC0049A64
:10BDF0000B99DDF814E01C6840F29C00C2F20000D0
:10BE00000460DEF800404460DCF8004084601468A0
:10BE1000C4605C6840F2AC05C2F2000506952C6077
:10BE2000DEF804406C60DCF80440AC605468EC6000
:10BE30009C6840F2BC05C2F2000507952C60DEF854
:10BE400008406C60DCF80840AC609468EC60DC682A
:10BE500040F27815C2F2000508952C60DEF80C401F
:10BE60006C60DCF80C40AC60D468EC601C6940F29B
:10BE70008815C2F2000509952C60DEF810406C6050
:10BE8000DCF81040AC601469EC605C6940F2981317
:10BE9000C2F200030A931C60DEF814E0C3F804E069
:10BEA000DCF814C0C3F808C05269DA6000F03CF84E
:10BEB00006980B9940F25812C2F200020C9282EDE1
:10BEC000000A00F031F807980B990C9A82ED010AEC
:10BED00000F02AF808980B990C9A82ED020A00F0FB
:10BEE00023F809980B990C9A82ED030A00F01CF8CC
:10BEF0000A980B990C9A82ED040A00F015F80C9838
:10BF000080ED050A40F2B410C2F20000007801286A
:10BF100009D1FFE7FEF714FE40F2B411C2F20001AE
:10BF200000200870FFE732E784B003900291002000
:10BF300001900090FFE700980299884211DAFFE72C
:10BF40000398009900EB810090ED001A9DED010A25
:10BF500030EE010A8DED010AFFE7009801300090F4
:10BF6000E9E79DED010A9DED021AB8EEC11A80EED7
:10BF7000010A04B07047000080B584B08DF80F004E
:10BF80000291019200200090FDF75EFF0299019A54
:10BF9000FDF7B6FB00909DF90F000099FDF77EFFBD
:10BFA0009DF90F00FDF730FF04B080BD80B582B071
:10BFB0008DF807009DF80700FDF792FF02B080BDE5
:10BFC00080B582B003208DF80700FFF7FFFA41F239
:10BFD0000000C0F60300FFF799FAFFF715F98DF896
:10BFE0000700FFF781FA9DF8070002B080BD00004E
:10BFF0002DE9F04F8DB003208DF8330041F20000A1
:10C00000C0F60300006847F21121C7F211218842EF
:10C0100007D1FFE740F26800C2F2000000F042F8EA
:10C020003AE040F26800C2F200000A9000F0EEFD33
:10C03000DDF828E0DEF80000DEF80410DEF8082065
:10C04000DEF80C30DEF810C0DEF81440DEF81850D0
:10C05000DEF81C60DEF82070DEF82480DEF8289020
:10C06000DEF82CA0DEF830B0EE46CDF82CE0CEF8AD
:10C0700020B0CEF81CA0CEF81890CEF81480CEF8E0
:10C080001070CEF80C60CEF80850CEF80440CEF810
:10C0900000C000F08BF8FFE79DF833000DB0BDE85D
:10C0A000F08F000081B0009041F23200C0F6030032
:10C0B0000078009981F8300041F20500C0F60300D5
:10C0C00000780099487041F20600C0F6030000783D
:10C0D0000099887041F21A00C0F6030000680099C8
:10C0E000886141F21E00C0F6030000680099C86133
:10C0F00041F22200C0F6030000680099086241F294
:10C100000A00C0F6030000680099886041F20E0042
:10C11000C0F6030000680099C86041F21200C0F642
:10C12000030000680099086141F21600C0F60300A0
:10C1300000680099486141F23300C0F603000088AE
:10C140000099488641F20900C0F603000078009982
:10C15000487141F20400C0F60300007800990870AD
:10C1600041F22600C0F6030000680099486241F2DF
:10C170002A00C0F6030000680099886241F22E0090
:10C18000C0F6030000680099C86241F20800C0F6DA
:10C19000030000780099087141F20700C0F603001F
:10C1A00000780099C87001B0704700002DE9F04F89
:10C1B0008FB0DDF880A0DDF87C90DDF878801D9FE1
:10C1C0001C9E1B9D1A9CDDF864E0DDF860C0CDF874
:10C1D00034A0CDF83090CDF82C800A9709960895B8
:10C1E0000794CDF818E0CDF814C00493039202919F
:10C1F000019003208DF80300FFF7E2FEFFF7E6F958
:10C2000041F20000C0F6030047F21121C7F21121EC
:10C21000FFF7F2F9032805D0FFE79DF803008DF83A
:10C220003B008AE140F26800C2F20000816841F2FE
:10C230000A00C0F60300FFF7DFF9032805D0FFE787
:10C240009DF803008DF83B0077E140F26800C2F2F0
:10C25000000090ED030ABCEEC00A10EE101A41F285
:10C260000E00C0F60300FFF7C7F9032805D0FFE76B
:10C270009DF803008DF83B005FE140F26800C2F2D8
:10C28000000090ED040ABCEEC00A10EE101A41F254
:10C290001200C0F60300FFF7AFF9032805D0FFE74F
:10C2A0009DF803008DF83B0047E140F26800C2F2C0
:10C2B000000090ED050ABCEEC00A10EE101A41F223
:10C2C0001600C0F60300FFF797F9032805D0FFE733
:10C2D0009DF803008DF83B002FE140F26800C2F2A8
:10C2E000000090ED060ABCEEC00A10EE101A41F2F2
:10C2F0001A00C0F60300FFF77FF9032805D0FFE717
:10C300009DF803008DF83B0017E140F26800C2F28F
:10C31000000090ED070ABCEEC00A10EE101A41F2C0
:10C320001E00C0F60300FFF767F9032805D0FFE7FA
:10C330009DF803008DF83B00FFE040F26800C2F278
:10C34000000090ED080ABCEEC00A10EE101A41F28F
:10C350002200C0F60300FFF74FF9032805D0FFE7DE
:10C360009DF803008DF83B00E7E040F26800C2F260
:10C37000000090ED090ABCEEC00A10EE101A41F25E
:10C380002600C0F60300FFF737F9032805D0FFE7C2
:10C390009DF803008DF83B00CFE040F26800C2F248
:10C3A000000090ED0A0ABCEEC00A10EE101A41F22D
:10C3B0002A00C0F60300FFF71FF9032805D0FFE7A6
:10C3C0009DF803008DF83B00B7E040F26800C2F230
:10C3D000000090ED0B0ABCEEC00A10EE101A41F2FC
:10C3E0002E00C0F60300FFF707F9032805D0FFE78A
:10C3F0009DF803008DF83B009FE040F26800C2F218
:10C400000000017841F20400C0F60300FEF7C0FF0F
:10C41000032805D0FFE79DF803008DF83B008CE072
:10C4200040F26800C2F20000417841F20500C0F617
:10C430000300FEF7ADFF032805D0FFE79DF80300DA
:10C440008DF83B0079E040F26800C2F2000081788C
:10C4500041F20600C0F60300FEF79AFF032805D05C
:10C46000FFE79DF803008DF83B0066E040F26800AE
:10C47000C2F20000C17841F20700C0F60300FEF7E7
:10C4800087FF032805D0FFE79DF803008DF83B00E8
:10C4900053E040F26800C2F20000017941F2080066
:10C4A000C0F60300FEF774FF032805D0FFE79DF8F0
:10C4B00003008DF83B0040E040F26800C2F200004B
:10C4C000417941F20900C0F60300FEF761FF03283D
:10C4D00005D0FFE79DF803008DF83B002DE040F20A
:10C4E0006800C2F2000090F8301041F23200C0F64D
:10C4F0000300FEF74DFF032805D0FFE79DF803007A
:10C500008DF83B0019E040F26800C2F20000418E55
:10C5100041F23300C0F60300FEF790FF032805D078
:10C52000FFE79DF803008DF83B0006E0FEF7DCFF17
:10C530009DF803008DF83B00FFE79DF83B000FB02E
:10C54000BDE8F08F81B0009000990020087000993C
:10C550004870009988700099C87000990871009916
:10C5600048710099887100990120C87101B0704725
:10C5700082B001908DF803109DF80320019908689E
:10C5800002F0010220F0400040EA8210086002B090
:10C590007047000082B0019000910199C86920F4B1
:10C5A0000060C8610098007880B9FFE701990868C9
:10C5B00020F4004008600199086820F48040086079
:10C5C0000199086820F48060086041E000980078D4
:10C5D000012810D1FFE70199086820F400400860A5
:10C5E0000199086820F4804008600199086840F4C7
:10C5F000806008602BE000980078022810D1FFE7E7
:10C600000199086840F4004008600199086820F426
:10C61000804008600199086820F48060086015E097
:10C6200000980078032810D1FFE70199086840F4CA
:10C63000004008600199086840F480400860019952
:10C64000086820F480600860FFE7FFE7FFE7FFE786
:10C650000098C2790199086802F0010220F4007084
:10C6600040EA422008600098407801280BD1FFE79B
:10C670000098C079012806D1FFE70199086840F4C5
:10C680008070086005E00199086820F480700860F7
:10C69000FFE7009842780199086802F0010220F053
:10C6A000040040EA8200086000988078072816DCC1
:10C6B000FFE70199486820F40070486001994868D4
:10C6C00020F480704860009882780199086802F030
:10C6D000070220F0380040EAC20008602BE0009812
:10C6E00080780A2810D1FFE70199486840F400706B
:10C6F00048600199486820F4807048600199086892
:10C7000020F03800086015E00199486820F40070B6
:10C7100048600199486840F48070486000988078CB
:10C7200000F007020199086820F0380040EAC200D2
:10C730000860FFE7FFE70098C2780199086802F0F7
:10C74000010220F0800040EAC210086000980279DF
:10C750000199086802F0010220F4006040EAC2205A
:10C760000860009842790199086802F0010220F0FF
:10C77000020040EA42000860009882790199086846
:10C7800062F30000086002B07047000080B58AB014
:10C79000002009900890079006900590049003905F
:10C7A000FEF7C6F98DF80B009DF80B0001460191CC
:10C7B00040B1FFE7019801282BD0FFE7019802283C
:10C7C00031D068E043F6A000C4F202000068800B9C
:10C7D000C00798B1FFE743F6A000C4F2020000686A
:10C7E000000BC00750B1FFE740F20001C2F20001A8
:10C7F00046F60040C0F2DC20086009E040F200018B
:10C80000C2F2000141F20020C0F27A000860FFE7A6
:10C810004BE040F20001C2F2000141F20020C0F200
:10C820007A00086041E043F60400C4F202000168A7
:10C83000C1F3805106910168C1F388110991016823
:10C8400001F00F0108910068C0F302414DF27E50E3
:10C85000C0F60000405C0790069830B9FFE741F24F
:10C860000020C0F27A00059005E041F20020C0F2FD
:10C870007A000590FFE705980999A0FB0101089A45
:10C88000079B5A430023FCF731FD40F20001C2F23E
:10C890000001086009E040F20001C2F2000141F22B
:10C8A0000020C0F27A000860FFE743F60800C4F2F7
:10C8B00002000068C0F30310049004994DF2845004
:10C8C000C0F60000405C039040F20001C2F200019B
:10C8D0000868039AD04008600AB080BD81B08DF826
:10C8E00003009DF80300042809D1FFE74EF2100170
:10C8F000CEF20001086840F00400086008E04EF243
:10C900001001CEF20001086820F004000860FFE783
:10C9100001B0704782B001908DF803109DF803209C
:10C920000199486902F0010220F0800040EAC2103B
:10C93000486102B07047000082B001908DF803108A
:10C940009DF803200199C86802F0010220F400500C
:10C9500040EA4230C86002B07047000082B00190E7
:10C960008DF803109DF8030058B9FFE70199486955
:10C9700020F4807048610199486920F40070486192
:10C9800032E09DF8030001280BD1FFE701994869C7
:10C9900040F4807048610199486920F40070486152
:10C9A00021E09DF8030002280BD1FFE701994869B7
:10C9B00020F4807048610199486940F40070486132
:10C9C00010E09DF8030003280BD1FFE701994869A7
:10C9D00040F4807048610199486940F400704861F2
:10C9E000FFE7FFE7FFE7FFE702B0704780B58AB0D7
:10C9F000099008918DF81F208DF81E3003A8FDF7CF
:10CA0000AFFE099841F20001C4F20101884208D04A
:10CA1000FFE7099841F20041C4F20101884203D1C5
:10CA2000FFE70598029002E006980290FFE702985F
:10CA300000EB800040000899B0FBF1F001900198F4
:10CA40004CF6CD41CCF6CC41A0FB0121C90801EB4D
:10CA50008101A0EB410004280AD8FFE701984CF6B9
:10CA6000CD41CCF6CC41A0FB0110C00801900BE0F9
:10CA700001984CF6CD41CCF6CC41A0FB0101012040
:10CA800000EBD1000190FFE7BDF804200999886808
:10CA90004FF6FF739843104488609DF81F0058B903
:10CAA000FFE70999C86840F08050C8600999C868D4
:10CAB00020F48050C8601BE09DF81F0001280BD1B6
:10CAC000FFE70999C86820F08050C8600999C868D4
:10CAD00020F48050C8600AE00999C86820F08050AE
:10CAE000C8600999C86840F48050C860FFE7FFE754
:10CAF0009DF81E200999086902F0030220F44050B5
:10CB000040EA023008610AB080BD000083B00290A4
:10CB100001918DF803209DF8030001280CD1FFE757
:10CB2000019800F01F02012101FA02F30299020CA0
:10CB30008858184388500BE0019800F01F0201212B
:10CB400001FA02F30299020C885898438850FFE7D3
:10CB500003B0704782B001908DF803109DF8030078
:10CB600058B9FFE70199C86820F40070C8600199BE
:10CB7000C86820F48060C86021E09DF803000128A7
:10CB80000BD1FFE70199C86820F40070C8600199D3
:10CB9000C86840F48060C86010E09DF80300022877
:10CBA0000BD1FFE70199C86840F40070C860019993
:10CBB000C86840F48060C860FFE7FFE7FFE702B0A5
:10CBC0007047000082B001908DF803109DF803209B
:10CBD0000199C86802F0010220F0040040EA8200D6
:10CBE000C86002B07047000082B001908DF8031059
:10CBF0009DF803200199C86802F0010220F00800A6
:10CC000040EAC200C86002B07047000081B00090E6
:10CC100000990220087000990120487000998870DE
:10CC20000099C870009900200871009A0421517180
:10CC3000009A4FF4613191600099C86000990861D1
:10CC400000994861009988610099C861009908625B
:10CC500000994862009988620099C8620099322060
:10CC600081F830000099C820488601B07047000064
:10CC700080B582B0019000F095FA009001980130E3
:10CC800020B1FFE7019801300190FFE7FFE700F0D6
:10CC900089FA0099401A0199884201D2FFE7F6E724
:10CCA00002B080BD80B58CB046F20840C4F20200EC
:10CCB0000090FEF7A5F807A80490FEF723F8009867
:10CCC000049910220192ADF82420002202928DF8DE
:10CCD0002B20012306938DF829308DF82A208DF81A
:10CCE00028208DF82D208DF82C20FEF725F80699A8
:10CCF00046F20040C4F202000590FEF7D5F846F275
:10CD00000450C4F202001921FEF7DEF846F21C407E
:10CD1000C4F202000390FEF773F80498FDF7F2FFE7
:10CD2000DDF804C0029A03980499069BADF824C06C
:10CD30008DF82B208DF829308DF82A208DF82820A9
:10CD40008DF82D208DF82C20FDF7F6FF059806991B
:10CD5000FEF7AAF846F20850C4F202007321FEF76B
:10CD6000B3F80CB080BD000084B003900291019232
:10CD7000ADF80230BDF802000399486002980399AB
:10CD8000886001980399C86004B0704780B58CB082
:10CD90000AA80990FEF78EFC0020C4F2020005905C
:10CDA0001E210191FEF77CFC40F20040C4F202001B
:10CDB00008904FF480510391FEF772FC019B059897
:10CDC0000999022204928DF82F20002207928DF8F3
:10CDD0002C204FF0010CCDF808C08DF82EC00A931E
:10CDE0008DF82D20FEF778FCDDF808C0039B079A2C
:10CDF00008980999DDF810E08DF82FE08DF82C20C7
:10CE00008DF82EC00A938DF82D20FEF765FC07984B
:10CE10000999032206928DF82E204FF460420A925F
:10CE20008DF82D0040F60000C4F20200FEF754FC1D
:10CE30000598069B079A09998DF82E3048F2011340
:10CE40000A938DF82D20FEF747FC069B079A089859
:10CE500009998DF82E3040F6FF730A938DF82D2036
:10CE6000FEF73AFC0CB080BD80B582B00320FFF71E
:10CE70009DF8FCF7E1FF0F2100220192FCF70AFC6C
:10CE800001464FF0FF30FCF7E7FF019A2520022111
:10CE9000FFF772F802B080BD80B582B04FF4401049
:10CEA00001210191FDF766FD01990120C0F23000DA
:10CEB000FDF760FD01990720C0F23000FDF75AFD33
:10CEC00001991620C0F23000FDF754FD01990420AD
:10CED000C0F24400FDF74EFD01990520C0F2440068
:10CEE000FDF748FD01990C20C0F24400FDF742FD1A
:10CEF00001990E20C0F24000FDF73CFD02B080BD5C
:10CF000080B596B014A80190FEF7D4FB12A8039048
:10CF1000FFF718FB0199022205928DF85720002097
:10CF200009908DF854008DF85620202214928DF827
:10CF300055000020C4F202000290FEF7CDFB0298DB
:10CF4000052208921146FEF73BFC01990298059BC9
:10CF5000099A8DF857308DF854208DF856304023BB
:10CF600014938DF85520FEF7B7FB0298089A062116
:10CF70000A91FEF725FC01990298059B099A8DF804
:10CF800057308DF854208DF85630802314938DF847
:10CF90005520FEF7A1FB0298089A0721FEF710FC26
:10CFA0000399099A8DF8482001200D908DF84900C9
:10CFB0008DF84C208DF84B2003228DF84A208DF8F7
:10CFC0004D008DF84E008DF84F0043F20000C4F282
:10CFD00001000490FFF7DEFA04980D99FFF7C8FAF4
:10CFE00010A80690FEF766FB0EA80B90FFF7AAFAB2
:10CFF000059A069909988DF847208DF844008DF818
:10D0000046204FF4005210928DF8450040F2004047
:10D01000C4F202000790FEF75FFB0798089A0D2103
:10D02000FEF7CEFB059B06990798099A8DF84730C5
:10D030008DF844208DF846304FF4804310938DF8DE
:10D040004520FEF749FB0798089A0E21FEF7B8FB2A
:10D05000059B06990798099A8DF847308DF844206A
:10D060008DF846304FF4004310938DF84520FEF7BD
:10D0700033FB0798089A0F21FEF7A2FB099B0A9A37
:10D080000B990D988DF838308DF839008DF83C30BB
:10D090008DF83B308DF83A208DF83D008DF83E003C
:10D0A0008DF83F0043F60000C4F200000C90FFF73B
:10D0B00071FA0C980D99FFF75BFA16B080BD00006D
:10D0C00080B584B0FDF7C2FC1C20C0F240000121F5
:10D0D0000391FDF74FFC039947F21002C4F20002DE
:10D0E000106861F30200106043F66042C4F202026D
:10D0F000106861F3010010600420FDF7DDFAFFE71E
:10D100000120C0F27400FDF7E3FB012801D0FFE726
:10D11000F6E701210846FDF7CFFAFFE7FDF7F8FB38
:10D1200008B9FFE7FAE700200121FDF7C5FAFFE79C
:10D130000120FDF7CDFB012801D0FFE7F8E79021A2
:10D1400001220292022301931046FDF73DFC019853
:10D150000299FDF7B1FAFFE71920FDF7B9FB0128A5
:10D1600001D0FFE7F8E70020FDF74EFA0420009019
:10D17000FDF772FA0098FDF75BFA0120FDF780FADF
:10D180000220FDF7B1FCFFE7FDF7D2FC022801D039
:10D19000FFE7F9E70020FDF773FAFFF7F7FA04B0AD
:10D1A00080BD000040F2B010C2F20000006870477D
:10D1B00080B500F001F880BD40F2B011C2F200016C
:10D1C000086801300860704780B586B00020009084
:10D1D000019002A8FDF7C4FA00980399C9080191CB
:10D1E000FFF77CFB0098019944F6D352C1F262022A
:10D1F000A1FB02124FF0FF3101EB92114EF214022B
:10D20000CEF2000211604EF21801CEF20001086069
:10D210004EF21001CEF20001086840F003000860F1
:10D2200006B080BD80B58CB00AA80490FEF742FA23
:10D230000499022203928DF82F20002007908DF888
:10D240002C008DF82E204FF400720A928DF82D00DC
:10D250000020C4F202000590FEF73EFA059809216D
:10D2600007220192FEF7ACFA039B04990598079AEE
:10D270008DF82F308DF82C208DF82E304FF48063F0
:10D280000A938DF82D20FEF727FA019A05980A21B6
:10D29000FEF796FA079B40F26800C2F20000816830
:10D2A00041F20000C4F20100029001220992FFF74E
:10D2B0009DFB02980999FFF797FC02980999FFF7DF
:10D2C00081FC02980799FFF745FC02980999FFF73E
:10D2D00021FB02980799FFF741FB02980999FFF794
:10D2E0002BFB0298099A0521C0F20C01FFF70EFCF6
:10D2F0000498FEF7DFF9039B04990598079A8DF8C7
:10D300002F308DF82C208DF82E304FF400630A93C7
:10D310008DF82D20FEF7E0F905980B2108220692E2
:10D32000FEF74EFA039B04990598079A8DF82F3063
:10D330008DF82C208DF82E304FF480530A938DF801
:10D340002D20FEF7C9F90598069A0C21FEF738FA48
:10D35000079B099A41F20040C4F2010008904FF483
:10D36000E121FFF743FB08980999FFF73DFC089876
:10D370000999FFF727FC07990898FFF7EBFB089836
:10D380000999FFF7C7FA07990898FFF7E7FA08988D
:10D390000999FFF7D1FA0CB080BD000021F00042DE
:10D3A00001F00043A2F16052B2F5801F28BFD2F114
:10D3B0007F6C0BD95FEA001C43EAC20242EB50705B
:10D3C00018BF704728BF20F001007047B2F5801FDA
:10D3D000BCBF184670474FEA410C1CF5001F02D233
:10D3E000084600F07EB870B500F020F80000008913
:10D3F000FFF7F6BF4FF00040A0F58000704710F037
:10D40000004248BF4042B0FA80F310FA03F10AD05C
:10D41000C3F11D0303F5806302EB03524FEA415051
:10D4200002EBD12170474FF0000070470EF1020E61
:10D430002EF0030E5EF8046B364205D4012A43EB4E
:10D44000030515F5001F12D8012841EB010C1CF54E
:10D45000001F0CD80ED14FEAD17C0CEB4C0C0CF118
:10D46000020C15F5001F08BF4CEBD37C04E04FF015
:10D47000080C01E04FEAD37C0CEB4C0526FA05F6CC
:10D4800006F00706B6F1040C06D20EEB860CBDE8DA
:10D4900070404CF0010C6047DFE80CF0090B020211
:10D4A0004FF00041A1F500214FF0000070BD19467A
:10D4B0001046012851EB010418BFD4F5001484BFB5
:10D4C000002001F0004170BDF1EE100A4FF6FF712F
:10D4D000C0F2C03120EA010040F04070E1EE100AD5
:10D4E0007047FF2141EAD050C00570470000803FDF
:10D4F0000000803F0000803F0000803F0000803F30
:10D500000000803F0000803F0000803F0000803F1F
:10D510000000803F0000803F0000803F0000803F0F
:10D520000000803F0000803F0000803F0000803FFF
:10D530000000803F0000803F0000803F0000803FEF
:10D540000000803F0000803F0000803F0000803FDF
:10D550000000803F0000803F000000000102030443
:10D560000000000001020304010204081020000072
:10D570000000000000000102030406070809010280
:10D580000408102000000000000000000102030455
:10D5900006070809B8D500080000002008000000B0
:10D5A00048920008C0D5000808000020B003010020
:10D5B000649200080000000000127A0000000000E1
:040000050800920D50
:00000001FF
