:020000040800F2
:1000000070090024390300089F4C00084D4800087F
:100010009D4C000883050008A9640008000000004A
:10002000000000000000000000000000EF5A00087F
:10003000090A000800000000A14C0008D55B000878
:100040005703000857030008570300085703000828
:100050005703000857030008570300085703000818
:10006000570300085703000857030008C505000898
:1000700057030008570300085703000857030008F8
:1000800057030008570300085703000857030008E8
:100090005703000857030008570300080B0A00081D
:1000A00057030008570300085703000857030008C8
:1000B00057030008570300085703000857030008B8
:1000C00057030008570300085703000857030008A8
:1000D000570300089D6400085703000857030008F1
:1000E00057030008570300080000000057030008EA
:1000F0005703000857030008570300085703000878
:100100005703000857030008570300085703000867
:100110005703000857030008570300085703000857
:100120005703000857030008570300085703000847
:100130005703000857030008570300085703000837
:1001400000000000000000000000000000000000AF
:100150005703000857030008570300085703000817
:100160005703000857030008570300085703000807
:100170005703000857030008570300080000000059
:1001800057030008570300085703000857030008E7
:1001900057030008570300085703000857030008D7
:1001A00057030008570300085703000857030008C7
:1001B00057030008570300085703000857030008B7
:1001C00057030008570300085703000857030008A7
:1001D0005703000857030008570300085703000897
:1001E0005703000857030008570300085703000887
:1001F0005703000857030008570300085703000877
:100200005703000857030008570300085703000866
:100210005703000857030008570300085703000856
:1002200057030008570300085703000800000000A8
:100230005703000857030008000000005703000898
:100240005703000857030008570300085703000826
:100250005703000857030008570300085703000816
:100260005703000857030008570300085703000806
:100270005703000857030008570300080000000058
:100280005703000857030008570300080000000048
:10029000000000005703000800F002F800F03CF8EE
:1002A0000AA090E8000C82448344AAF10107DA45D1
:1002B00001D100F031F8AFF2090EBAE80F0013F0E7
:1002C000010F18BFFB1A43F001031847F862000042
:1002D00018630000103A24BF78C878C1FAD85207D2
:1002E00024BF30C830C144BF04680C6070470000B0
:1002F0000023002400250026103A28BF78C1FBD82F
:10030000520728BF30C148BF0B6070471FB506F0C9
:1003100033F91FBD10B510BD00F0F9F81146FFF715
:10032000F5FF06F0D9F800F017F903B4FFF7F2FF74
:1003300003BC00F01FF900000A4880470A488047C4
:100340000A480047FEE7FEE7FEE7FEE7FEE7FEE7B6
:10035000FEE7FEE7FEE7FEE705480649064A074BCB
:1003600070470000190A0008815C00089902000823
:100370007003002470090024700500247005002417
:1003800053EA020C00F069802DE9F04B4FF00006B3
:10039000002B1FBFB3FA83F503FA05F424FA05F620
:1003A0005E4012BF1643B2FA82F502FA05F4C5F1B7
:1003B00020051EBF22FA05FC44EA0C04203556EA4B
:1003C000044C4FEA144418BF641C4FF000084FF06F
:1003D0000009904271EB030C39D3002919BFB1FA1F
:1003E00081F701FA07F6B0FA80F700FA07F6C7F1CD
:1003F00020071EBF20FA07FC46EA0C062037B6FB92
:10040000F4FCA7EB0507103F07F01F0BCBF120060C
:100410000CFA0BFB2CFA06F644BFB3460026202F3D
:10042000A4BF5E464FF0000B5BEA060C08BF4FF01E
:10043000010B19EB0B09ABFB027C48EB0608C01B58
:1004400006FB02CC0BFB03CC71EB0C01C1E70B46A6
:10045000024641464846BDE8F08B13B54FF0000018
:100460004FF00001AFF30080BDE81C407047B2F1CF
:1004700020030AD5C2F1200301FA02F120FA03F3A6
:1004800000FA02F041EA0301704700FA03F14FF06D
:1004900000007047B2F120030AD5C2F1200320FA10
:1004A00002F001FA03F321FA02F140EA0300704777
:1004B00021FA03F04FF0000170474FF0000200B541
:1004C000134694469646203922BFA0E80C50A0E877
:1004D0000C50B1F12001BFF4F7AF090728BFA0E825
:1004E0000C5048BF0CC05DF804EB890028BF40F8F1
:1004F000042B08BF704748BF20F8022B11F0804F33
:1005000018BF00F8012B7047704770477047754659
:1005100000F02CF8AE4605006946534620F007006F
:10052000854618B020B5FFF717FFBDE820404FF013
:1005300000064FF000074FF000084FF0000B21F0CD
:100540000701AC46ACE8C009ACE8C009ACE8C0099A
:10055000ACE8C0098D46704710B50446AFF3008083
:100560002046BDE81040FFF7E0BE0000004870479D
:100570000C03002401491820ABBEFEE72600020050
:100580007047FEE72DE9F0414FF02F088FB2454646
:10059000FF2420F0FF06394630462A46FFF77AFF4F
:1005A000210600F0010004D588EA4401CCB24440A1
:1005B00002E0610640EA11646D1EECD52046BDE8FC
:1005C000F0810000014800F027BD000094020024E3
:1005D000294A016891423AD0274A1832914236D0CE
:1005E000254A3032914232D0234A483291422ED0AD
:1005F000214A603291422AD01F4A7832914226D055
:100600001D4A9032914222D01B4AA83291421ED0FC
:100610001A4A91421BD0194A1832914217D0174AF0
:100620003032914213D0154A483291420FD0134ACA
:10063000603291420BD0114A7832914207D00F4A72
:100640009032914203D00D4AA832914211D1CAB2E0
:100650001823103AB2FBF3F26FF30901032A02F0F8
:100660000703074AD25CC26500D9091D81650846A7
:10067000704721F0FF01F9E710000240100402402A
:100680008265000830B5224A012301689142CAB24E
:100690001BD01F4C1434A14217D01D4C2834A1424A
:1006A00013D01B4C3C34A1420FD0194C5034A14202
:1006B0000BD0174C6434A14207D0154C7834A142BA
:1006C00003D0134C8C34A1420CD11421114C083AA4
:1006D000B2FBF1F10F4A803201F01F0504EB8101FA
:1006E000AB4010E00C4D1824103A0D44B2FBF4F16D
:1006F000A82D00D80831094A01F01F0402EB81013E
:10070000064AA3408032603080E80E0030BD000011
:100710000854025800580258F0FBFDBF0008024080
:1007200010B50279531E072B2DD8174C0168A14232
:100730001BD0154C1434A14217D0134C2834A142BD
:1007400013D0114C3C34A1420FD00F4C5034A14275
:100750000BD00D4C6434A14207D00B4C7834A1422D
:1007600003D0094C8C34A14203D10849074C4431D1
:1007700002E00749064C443104EB8202C0E91B2128
:1007800001219940416710BD08540258FC58025895
:10079000FC08024010B583694FF0C074826A0146BC
:1007A000002053B1B3F5005F15D072B1012A0CD00F
:1007B000022A0AD0032A09D104E01AB1012A06D07C
:1007C000022A03D1C96AC90100D5012010BDC96A36
:1007D000A142FAD010BD002AF7D0012AF2D0022A95
:1007E000F3D0032AF3D010BD2DE9F04F804E804F97
:1007F000DFF8FC911836DFF8F8A148370468856DFA
:100800000AF1300ADFF8ECB14C45DFF8ECC1DFF853
:10081000ECE16DD0B4426BD0544569D0BC4267D096
:10082000DFF8D081A8F11808444561D05C455FD05D
:1008300064455DD074455BD0DFF8C481444557D032
:10084000DFF8BC8108F11808444551D0DFF8B081C9
:1008500008F1300844454BD0DFF8A48108F148087E
:10086000444545D0DFF8988108F1600844453FD001
:10087000DFF88C8108F17808444539D0DFF88081B1
:1008800008F19008444533D0DFF8748108F1A808D6
:1008900044452DD0DFF86C81444529D0DFF86481D0
:1008A00008F11408444523D0DFF8588108F12808DE
:1008B00044451DD0DFF84C8108F13C08444517D071
:1008C000DFF8408108F15008444511D0DFF8348149
:1008D00008F1640844450BD0DFF8288108F1780856
:1008E000444505D0DFF81C8108F18C08444509D146
:1008F000D0E91948C4F80480C46E1CB1D0E91C4882
:10090000C4F8048004684C452ED0B4422CD0544521
:100910002AD0BC4228D0374E183EB44224D05C4581
:1009200022D0644520D074451ED0354EB4421BD031
:10093000334E1836B44217D0314E3036B44213D04D
:100940002F4E4836B4420FD02D4E6036B4420BD0F5
:100950002B4E7836B44207D0294E9036B44203D09D
:10096000274EA836B44215D190F85C603F2406F0BB
:100970001F06B440AC600468256825F48025256016
:100980002EE09A600068C160BDE8F08F9960006851
:10099000C260F9E71B4EB4421BD01A4E1436B44263
:1009A00017D0184E2836B44213D0164E3C36B442F7
:1009B0000FD0144E5036B4420BD0124E6436B442AF
:1009C00007D0104E7836B44203D00E4E8C36B44267
:1009D000DAD190F85C60012406F01F06B4406C6028
:1009E000046863608368402B0368CFD1C9E70000C7
:1009F0001000024088000240A0000240B8000240FF
:100A0000100402400854025870474FF4807001F0FF
:100A1000C3B972B6FEE70000054805490839026807
:100A200042F00202026008688004FCD570470000B2
:100A30000C4802582DE9F84F044601F0DBFA00900B
:100A40003CB194F83500022806D080216165002071
:100A5000E4E00120BDE8F88FC74DC74EC649183500
:100A600020683036DFF81483DFF814938842DFF80B
:100A700014A3DFF814B32ED0A8422CD0B0422AD051
:100A8000404528D0484526D0504524D0584522D04E
:100A9000BD4A183290421ED0BC4A90421BD0BB4A7D
:100AA0001832904217D0B94A3032904213D0B74A28
:100AB000483290420FD0B54A603290420BD0B34AD0
:100AC0007832904207D0B14A9032904203D0AF4A78
:100AD000A832904209D1026822F01E02026020680A
:100AE000426922F08002426103E0026822F00E02B5
:100AF000026027688F4238464DD0A8424BD0B042A2
:100B000049D0404547D0484545D0504543D0584549
:100B100041D09D4A183290423DD09C4A90423AD0F2
:100B20009A4A1832904236D0984A3032904232D0A7
:100B3000964A483290422ED0944A603290422AD04F
:100B4000924A7832904226D0904A9032904222D0F7
:100B50008E4AA83290421ED08D4A90421BD08C4AB9
:100B60001432904217D08A4A2832904213D0884AD1
:100B70003C3290420FD0864A503290420BD0844A89
:100B80006432904207D0824A7832904203D0804A41
:100B90008C32974204D1206E026822F48072026087
:100BA00075492068884228D0A84226D0B04224D077
:100BB000404522D0484520D050451ED058451CD035
:100BC00071491831884218D07049884215D06F4950
:100BD0001831884211D06D49303188420DD06B49AF
:100BE0004831884209D069496031884205D0674957
:100BF0007831884201D065499031016821F00101C6
:100C000001600EE001F0F6F90099401A052808D9B4
:100C1000202262650321002084F8351084F8340016
:100C200017E73868C007EDD1534A01212068904288
:100C30002ED0A8422CD0B0422AD0404528D04845DA
:100C400026D0504524D0584522D04F4B18339842D7
:100C50001ED04E4B98421BD04C4B1833984217D0A5
:100C60004A4B3033984213D0484B483398420FD008
:100C7000464B603398420BD0444B7833984207D0B0
:100C8000424B9033984203D0404BA833984208D14E
:100C900094F85C703F23A06D07F01F07BB40836092
:100CA00007E094F85C30A06D03F01F0301FA03F332
:100CB0004360206890424DD0A8424BD0B04249D00A
:100CC000404547D0484545D0504543D0584541D090
:100CD0002D4A183290423DD02C4A90423AD02B4AAD
:100CE0001832904236D0294A3032904232D0274AC8
:100CF000483290422ED0254A603290422AD0234A70
:100D00007832904226D0214A9032904222D01F4A17
:100D1000A83290421ED01E4A90421BD01C4A143268
:100D2000904217D01A4A2832904213D0184A3C32C7
:100D300090420FD0164A503290420BD0144A64327F
:100D4000904207D0124A7832904203D0104A8C3237
:100D500090420BD1D4E919024260E06E30B10268D2
:100D600022F480720260D4E91C024260002084F800
:100D7000351084F834006DE610000240580002403F
:100D80007000024088000240A000024010040240AF
:100D9000085402582DE9F05F28B190F83510022967
:100DA00004D0802141650120BDE8F09F904C904B1C
:100DB0000168183C18338E4ADFF83C92A1428D4CF2
:100DC000DFF838E28E4FDFF83CB2DFF83CA28F4DFF
:100DD0008F4E31D091422FD099422DD0A1422BD0AD
:100DE000494529D0714527D0B94225D0DFF810C236
:100DF0000CF1180C61451FD0DFF808C2ACF1600C93
:100E0000614519D0DFF8FCC1ACF1480C614513D045
:100E1000DFF8F0C1ACF1300C61450DD0DFF8E4C172
:100E2000ACF1180C614507D0594505D0514503D0A8
:100E3000A94201D0B1422CD1DFF8B4C14FF004086F
:100E400080F83580ACF1180C61451DD091421BD063
:100E5000994219D0A14217D0494515D0714513D0F8
:100E6000B94211D06648183081420DD065486038CB
:100E7000814209D063484838814205D06148303802
:100E8000814201D05F481838086820F001000860EE
:100E9000ABE0D1F800C02CF00E08DFF854C1C1F867
:100EA0000080ACF1180C0168614527D0914225D033
:100EB000994223D0A14221D049451FD071451DD070
:100EC000B9421BD0DFF838C10CF1180C614515D0C0
:100ED000DFF830C1ACF1600C61450FD0DFF824C100
:100EE000ACF1480C614509D0DFF818C1ACF1300C09
:100EF000614503D0DFF80CC1ACF1180CD1F800C08B
:100F00002CF0010CC1F800C0DFF8E4804FF0010CB8
:100F10000168A8F11808414546D0914244D0994251
:100F200042D0A14240D049453ED071453CD0B94263
:100F30003AD0334A1832914236D0324A603A91421E
:100F400032D0304A483A91422ED02E4A303A91421D
:100F50002AD02C4A183A914226D0594524D05145DE
:100F600022D0A94220D0B1421ED02A4A91421BD0A1
:100F7000284A1432914217D0264A2832914213D07F
:100F8000244A3C3291420FD0224A503291420BD037
:100F9000204A6432914207D01E4A7832914203D0EF
:100FA0001C4A8C32914218D1016E0A6822F4807278
:100FB0000A6090F85C20816D02F01F020CFA02F2C8
:100FC0004A60D0E919124A60C16E31B10A6822F450
:100FD00080720A60D0E91C124A600022016D80F81C
:100FE00035C080F8342001B188470020DCE60000DD
:100FF0002800024058000240700002408800024071
:10100000A00002407004024088040240A004024094
:10101000B8040240085402582DE9FC5F0446F74E1C
:101020000020DFF8D88300904FF41652F44808F1FE
:101030001808A56DDFF8C493DFF8C0A3016809F1B3
:10104000300920680AF1480AB1FBF2F1B04201917F
:101050002F68D5F800C0DFF8ACB335D041468842E0
:1010600032D0484530D050452ED058452CD0E54997
:101070001831884228D0E3493031884224D0E149F0
:101080004831884220D0E04988421DD0DE491831DD
:10109000884219D0DC493031884215D0DA494831CC
:1010A000884211D0DFF860E30EF1600E70450BD07E
:1010B000D54A7832904207D0D34B9033984203D030
:1010C000D149A83188427DD194F85C20082102F0F2
:1010D0001F0201FA02F23A424AD0B04232D04045F1
:1010E00030D048452ED050452CD058452AD0C54A3E
:1010F0001832904226D0C34A3032904222D0C14AA0
:10110000483290421ED0C04A90421BD0BE4A18328C
:10111000904217D0BC4A3032904213D0BA4A48327B
:1011200090420FD0B84A603290420BD0B64A783223
:10113000904207D0B44A9032904203D0B24AA832CB
:10114000904203D1026802F0040202E0026802F059
:1011500008026AB1026822F00402026094F85C009E
:1011600000F01F008140A960606D40F001006065E3
:1011700094F85C00012100F01F008140394240D00A
:101180002068B04234D0404532D0484530D0504538
:101190002ED058452CD09B4A1832904228D0994ADC
:1011A0003032904224D0974A4832904220D0964A1A
:1011B00090421DD0944A1832904219D0924A30324F
:1011C000904200E0AFE113D08F4A483290420FD0F6
:1011D0008D4A603290420BD08B4A7832904207D0D1
:1011E000894A9032904203D0874AA83290427DD1FA
:1011F000406910F0800F04D0A960606D40F00200DB
:10120000606594F85C00042100F01F0081403942C1
:101210003ED02068B04232D0404530D048452ED034
:1012200050452CD058452AD0764A1832904226D0C4
:10123000744A3032904222D0724A483290421ED0D4
:10124000714A90421BD0704A1832904217D06E4AB1
:101250003032904213D06C4A483290420FD06A4AE2
:10126000603290420BD0684A7832904207D0664A8A
:101270009032904203D0644AA83290424ED1006826
:1012800010F0020F04D0A960606D40F004006065AA
:1012900094F85C00102100F01F008140394258D0C2
:1012A0002068B04234D0404532D0484530D0504517
:1012B0002ED058452CD0534A1832904228D0514A4B
:1012C0003032904224D04F4A4832904220D04E4A89
:1012D00090421DD04C4A1832904219D04A4A3032BE
:1012E000904215D0484A4832904200E014E00FD0B6
:1012F000454A603290420BD0434A7832904207D040
:10130000414A9032904203D03F4AA832904207D1DE
:10131000006800F0080006E0006872E70068B7E7C0
:10132000006800F00400A0B1A960206801684903CA
:1013300004D50068000308D5A16C07E00168C90561
:1013400003D4016821F008010160216C09B1204635
:10135000884794F85C00202100F01F00814039424A
:1013600079D02068B04232D0404530D048452ED0A8
:1013700050452CD058452AD0224A1832904226D0C7
:10138000204A3032904222D01E4A483290421ED02B
:101390001D4A90421BD01C4A1832904217D01A4A5C
:1013A0003032904213D0184A483290420FD0164A39
:1013B000603290420BD0144A7832904207D0124AE1
:1013C0009032904203D0104AA832904203D1006874
:1013D00000F0100002E0006800F00200B0B3A96065
:1013E00094F835000428206801680FD049037ED5A1
:1013F000006800032BD4616C2AE00000100002405A
:1014000018000024700002401004024021F0160170
:1014100001602068416921F080014161206C08B9B8
:10142000A06C20B12068016821F00801016094F8E7
:101430005C303F21012003F01F0300229940A96086
:1014400084F8350084F83420216D65E003E0E16B19
:1014500009B120468847606D00287DD0606DC007C7
:1014600059D02068042184F83510B0422BD0404573
:1014700029D0484527D0504525D0584523D09D49EF
:10148000884220D09B49183188421CD0994930317C
:10149000884218D09849884215D097491831884217
:1014A00011D09549303188420DD093494831884256
:1014B00009D091496031884205D08F4978318842FE
:1014C00001D08D499031016821F00101016020684F
:1014D0000099019A491C0091914202D80168C907FC
:1014E000F6D10068C00710D003200FE0FFE70168C5
:1014F000C905ACD403680121002223F01003036066
:1015000084F8351084F83420A1E7012084F83500F0
:10151000002084F83400E16C00291DD002B0204680
:10152000BDE8F05F0847754988421DD07349143102
:10153000884219D071492831884215D06F493C3111
:10154000884211D06D49503188420DD06B496431C9
:10155000884209D0694900E084E07831884203D0AC
:1015600066498C3188427DD194F85C8004270168FB
:1015700008F01F0807FA08F717EA0C0F009746D083
:101580004F0744D500980F04686003D5C8033CD4C6
:10159000A16CC1E7880638D42068B0422DD05549E7
:1015A0006039884229D0484527D0504525D0584534
:1015B00023D05049884220D04E49183188421CD04F
:1015C0004C493031884218D04B49884215D04A499D
:1015D0001831884211D04849303188420DD04649EF
:1015E0004831884209D0704507D0904205D09842D2
:1015F00003D04149A831884203D1016821F0080194
:1016000002E0016821F004010160216C84E70227F7
:1016100007FA08F717EA0C0F00974ED08F074CD542
:1016200000980F04686003D5C80344D4616C73E765
:10163000880640D42068B0422FD02E4960398842B5
:101640002BD0484529D0504527D0584525D0294989
:10165000884222D02749183188421ED0254930318E
:10166000884200E044E018D02349884215D022493E
:101670001831884211D02049303188420DD01E499E
:101680004831884209D0704507D0904205D0984231
:1016900003D01949A831884203D1016821F014010F
:1016A00002E0016821F00A010160012184F835108F
:1016B000002084F83400E16B2EE7082202FA08F2D9
:1016C00012EA0C0F14D0090712D5016821F00E019F
:1016D000016094F85C100120002201F01F0100FA63
:1016E00001F16960606584F8350084F8342012E700
:1016F000BDE8FC9F880002401004024008540258D4
:101700002DE9F05F044600F075FC002C07467DD003
:10171000E34E022120684FF00308DFF888934FF072
:101720000005DFF884A3B042DFF880B334D0DC4A90
:101730001832904230D048452ED050452CD05845D4
:101740002AD0DA4A1832904226D0D84A3032904213
:1017500022D0D64A483290421ED0D54A90421BD061
:10176000D34A1832904217D0D14A3032904213D027
:10177000CF4A483290420FD0CD4A603290420BD0CF
:10178000CB4A7832904207D0C94A9032904203D077
:10179000C74AA83290427DD184F83510B04284F80F
:1017A00034502ED0BE49183188422AD0484528D01E
:1017B000504526D0584524D0BC491831884220D005
:1017C000BA49303188421CD0B8494831884218D0D3
:1017D000B749884215D0B6491831884211D0B4496A
:1017E000303188420DD0B2494831884209D0B049E1
:1017F0006031884205D0AE497831884201D0AC4989
:101800009031016821F00101016008E027E100BF8B
:1018100000F0F0FBC01B052801D920211CE1206845
:101820000068C007F4D104F108002168D4E9053C40
:101830008E4685C809681043D4E907281F43636AA8
:1018400038439C4F40EA0C001043394040EA0800FE
:10185000042B40EA010003D1D4E90B1211430843E1
:10186000954909686FF30F01B1F1005F0FD361680B
:10187000A1F12902052A08D9163A032A05D9083AFE
:10188000012A02D94F39032901D840F48010CEF83B
:10189000000000E023E02068676A4069042F20F020
:1018A000070047EA00070DD1D4E90A01074349B10F
:1018B0002046FEF76FFF28B140206065012184F8C3
:1018C0003510CCE0206847612046FEF781FE94F891
:1018D0005C203F2102F01F029140816054E0774A72
:1018E00090421BD0754B1433984217D0734B28335A
:1018F000984213D0714B3C3398420FD06F4B50330A
:1019000098420BD06D4B6433984207D06B4B7833C1
:10191000984203D0694B8C3398427DD184F83510BE
:1019200084F83450664B0168A26801EA030E402A2D
:1019300073D0802A72D00022D4E90378D4E905312B
:1019400042EAD70242EAD8085C4AD4E9077C48EA6E
:10195000D30848EAD10141EAD701524241EA1C11B9
:10196000142341EA0E01016020681044B0FBF3F03B
:101970008000E0652046FEF72BFE94F85C200121F4
:1019800002F01F02914041602068B04257D04449A4
:101990001831884253D0484551D050454FD0584512
:1019A0004DD042491831884249D0404930318842AF
:1019B00045D03E494831884241D03D4988423ED0D9
:1019C0003B49183188423AD039493031884236D0C3
:1019D00037494831884232D03549603188422ED06B
:1019E0003349783188422AD031499031884226D013
:1019F0002F49A831884222D0304988421FD02F4930
:101A0000143188421BD02D492831884217D02B49E8
:101A10003C31884213D002E01DE017E018E027496E
:101A2000503188420BD025496431884207D0234980
:101A30007831884203D021498C31884229D120460F
:101A4000FEF720FEA06880280CD00CE0102273E77F
:101A50004FF4804270E74021616584F835800120B1
:101A6000BDE8F09F6560216E20790860D4E9190116
:101A700041606068401E072808D82046FEF750FEE7
:101A8000E06E0560D4E91C01416002E0E56625676F
:101A900065670120656584F835000020E0E70000F7
:101AA0001000024040000240580002407000024016
:101AB000100402403F8010FE0010005C08540258E1
:101AC0000F00FEFF2DE9F84F04008C464FF0000098
:101AD000009014D094F83400012812D094F83550B6
:101AE0000120002184F83400012D0CD0C002606573
:101AF0000120009084F834100098BDE8F88F012090
:101B0000FBE70220F9E78C4D0226206884F8356057
:101B1000A8428A4D61658A4E8A4FDFF82C82DFF831
:101B20002C92DFF82CA2DFF82CB226D0A84224D0C9
:101B3000B04222D0B84220D040451ED048451CD0EB
:101B400050451AD0584518D08349884215D082494B
:101B50001831884211D08049303188420DD07E49F9
:101B60004831884209D07C496031884205D07A49A1
:101B70007831884201D078499031016821F0010123
:101B8000016061462046FEF72FFE6B4920688842BF
:101B90002CD0A8422AD0B04228D0B84226D0404506
:101BA00024D0484522D0504520D058451ED06A4AFE
:101BB00090421BD0684A1832904217D0664A3032A1
:101BC000904213D0644A483290420FD0624A603249
:101BD00090420BD0604A7832904207D05E4A9032F1
:101BE000904203D05C4AA83290420CD1026822F0A5
:101BF0001E0242F016020260206C88B12068026862
:101C000042F008020BE0026822F00E0242F00A02E3
:101C10000260206C20B12068026842F00402026079
:101C2000206888424BD0A84249D0B04247D0B84241
:101C300045D0404543D0484541D050453FD0584518
:101C40003DD0454A90423AD0434A1832904236D06D
:101C5000414A3032904232D03F4A483290422ED0F0
:101C60003D4A603290422AD03B4A7832904226D098
:101C7000394A9032904222D0374AA83290421ED040
:101C8000364A90421BD0354A1432904217D0334A1C
:101C90002832904213D0314A3C3290420FD02F4A22
:101CA000503290420BD02D4A6432904207D02B4ADA
:101CB0007832904203D0294A8C3290420DD1206E66
:101CC0000268D20303D5026842F480720260E06EBB
:101CD00018B1026842F4807202602068884226D0FF
:101CE000A84224D0B04222D0B84220D040451ED0D5
:101CF00048451CD050451AD0584518D0164988423E
:101D000015D015491831884211D013493031884215
:101D10000DD011494831884209D00F4960318842BD
:101D200005D00D497831884201D00B4990310168C6
:101D300041F001010160DFE610000240280002408E
:101D400040000240580002407000024088000240FB
:101D5000A0000240B800024010040240085402589B
:101D600070B5044600F046F90546601C02D00448F0
:101D70000078044400F03EF9401BA042FAD370BD45
:101D80000C000024B0F5807F02D1024901200870C8
:101D900070470000000000244FF0B04110B5D1F8AA
:101DA0008820024203D0C1F88800FFF7EBFF10BD86
:101DB0002DE9F84F03247D4D00234FF001094FF02A
:101DC000B04B4FF00F0AE9E009FA03F73A4076D03A
:101DD0000E7906F00306012E01D0022E18D1D0F89C
:101DE00008C04FEA430ECE6804FA0EF82CEA080C3D
:101DF00006FA0EF646EA0C068660D0F804C00E79A4
:101E00002CEA070CC6F300169E4046EA0C06466014
:101E10000E79F643B6070BD0C6684FEA43088F68C1
:101E200004FA08FC26EA0C0607FA08F73743C760ED
:101E30000E7906F00306022E12D1DE080F694FEA72
:101E4000437C00EB8606B646366A4FEADC6C0AFA3B
:101E50000CF807FA0CF726EA08063743CEF820708C
:101E60000F7906684FEA430807F0030704FA08FCF5
:101E700007FA08F726EA0C06374307604E6816F49F
:101E8000403F1CD04A4E376847F00207376036683B
:101E90009F0706F00206009623F0030606F1B046FF
:101EA000B6463F0FD6F80864DFF808810AFA07FC47
:101EB000404526EA0C0603D14FF0000C41E06CE0EF
:101EC000DFF8F4C0604502D14FF0010C39E0DFF8D3
:101ED000ECC0604502D14FF0020C32E0DFF8E0C008
:101EE000604502D14FF0030C2BE0DFF8D8C060450D
:101EF00002D14FF0040C24E0DFF8CCC0604502D1E1
:101F00004FF0050C1DE0DFF8C4C0604502D14FF072
:101F1000060C16E0DFF8B8C0604502D14FF0070CA0
:101F20000FE0DFF8B0C0604502D14FF0080C08E0C8
:101F3000DFF8A4C0604502D14FF0090C01E04FF07A
:101F40000A0C0CFA07FC4CEA060CCEF808C44F68E1
:101F5000DBF80060FF0226EA020600D516435F4662
:101F6000CBF80060D1F804C0DBF804605FEA8C2C89
:101F700026EA020600D516437E606E684F6826EAA0
:101F80000206BF0300D516436E602E684F6826EA2E
:101F90000206FF0300D516432E605B1C0A6832FA66
:101FA00003F67FF411AFBDE8F88F00008000005801
:101FB000F444025800000258000402580008025875
:101FC000000C025800100258001402580018025861
:101FD000001C025800200258002402580AB18161F6
:101FE00070470904FBE7000001480068000C7047D7
:101FF0000010005C01488068704700000C0000245D
:102000000248816802781144816070470C00002406
:10201000032010B500F0D4F801F0AEF80F4A1049D3
:1020200014681368C4F3032203F00F038A5CC95CCD
:1020300002F01F0201F01F01D0400A4A20FA01F10C
:102040001160094908600F2000F010F808B1012064
:1020500010BD00F079F8002010BD000018440258AF
:10206000B26500081C0000241800002470B50D4D56
:1020700004462878A0B14FF47A71B1FBF0F00A4918
:102080000968B1FBF0F002F0B9F848B9102C07D29A
:1020900000222146501E00F073F800206C6070BDD5
:1020A000012070BD0C00002418000024154BF0B571
:1020B000083B427813491A600B680A1F23F001039A
:1020C0000B6043681360057BC67A827A437B2D07D9
:1020D000847B45EA0665C77B90F809C0067A90F8CC
:1020E00000E045EAC24040EA834040EA444040EA1A
:1020F000074040EA0C2040EA460040EA0E00086033
:10210000F0BD0000A0ED00E0BFF35F8F04480021A8
:102110000368034A23F48033036070321160704710
:1021200024ED00E0074A40F00100064970321060DB
:10213000086840F480300860BFF34F8FBFF36F8FA3
:102140007047000024ED00E0054808B5016841F043
:1021500002010160006800F00200009008BD00006C
:10216000F4440258002809DB410900F01F028900ED
:10217000012001F1E0219040C1F80001704700000A
:102180000E4BF0B41B680D46C3F30223C3F10706E0
:10219000042E00D90426191D072901D2002300E0CE
:1021A000DB1E012404FA06F19C40491E2940641EEE
:1021B000994014402143F0BC04F077B90CED00E0E5
:1021C000064900F0070210B54FF6FF040868044BFB
:1021D000204040EA02201843086010BD0CED00E0EA
:1021E0000000FA05134970B50A68D243520705D5B5
:1021F000096801F00701814213D118E00A6822F052
:10220000070202430A60FFF7F5FE0A4D4FF47A76A3
:102210000446083D07E000BFFFF7ECFE001BB0429C
:1022200001D9012070BD2868C0438004F4D4002087
:1022300070BD00000C48025810B500F057FF05496A
:102240000968054AC1F30211515C01F01F01C84041
:1022500010BD000020440258B2650008494930B55D
:10226000484C0B1D0A68143409681D68246802F084
:102270000303C5F30012C1F30531C4F3CC040029F4
:1022800014FB02F200EE102AF8EE400A75D03F4A25
:102290009FED3D1AB7EE000A6BB1DFED3D1A012B41
:1022A00001D0022B64D002EE101A1168F8EE422A17
:1022B00081EEA22A21E0334C283C23689B0612D5EC
:1022C000344B246801EE901A1168C4F3C104F8EE8F
:1022D000612AE34001EE903AC1F30801F8EE611A79
:1022E00081EEA22A0BE001EE901ADFED2B2A00BF4F
:1022F000F8EE611A116882EEA12AC1F3080101EE1D
:10230000901A1168F8EE611A40EE811A71EE800A97
:1023100062EE200AC1F3462101EE101AB8EE411A0E
:1023200031EE001AC0EE811ABCEEE11A80ED001AFF
:102330001168C1F3064101EE101AB8EE411A31EEF0
:10234000001AC0EE811ABCEEE11A80ED011A116884
:10235000C1F3066101EE101AB8EE411A31EE000A1F
:1023600080EE801ABCEEC10A80ED020A30BD04E0A6
:1023700001EE901ADFED092ABAE700210160416001
:102380008160F3E7284402580000003938440258BD
:102390000024744A0090D0030024744C20BCBE4B2F
:1023A000494930B5484C0B1D0A681C3409681D6842
:1023B000246802F00303C5F30022C1F30551C4F3FE
:1023C000CC04002914FB02F200EE102AF8EE400AB9
:1023D00075D03F4A9FED3D1AB7EE000A6BB1DFEDB5
:1023E0003D1A012B01D0022B64D002EE101A1168A5
:1023F000F8EE422A81EEA22A21E0334C283C2368E1
:102400009B0612D5344B246801EE901A1168C4F370
:10241000C104F8EE612AE34001EE903AC1F30801ED
:10242000F8EE611A81EEA22A0BE001EE901ADFEDC0
:102430002B2A00BFF8EE611A116882EEA12AC1F3BF
:10244000080101EE901A1168F8EE611A40EE811A47
:1024500071EE800A62EE200AC1F3462101EE101AE5
:10246000B8EE411A31EE001AC0EE811ABCEEE11A44
:1024700080ED001A1168C1F3064101EE101AB8EEA2
:10248000411A31EE001AC0EE811ABCEEE11A80ED5D
:10249000011A1168C1F3066101EE101AB8EE411A73
:1024A00031EE000A80EE801ABCEEC10A80ED020A0D
:1024B00030BD04E001EE901ADFED092ABAE70021F1
:1024C000016041608160F3E7284402580000003950
:1024D000404402580024744A0090D0030024744CF5
:1024E00020BCBE4B2DE9FE4F0546DFF8E48350F8D3
:1024F000081B0024F64FC943019005F12800264629
:1025000008F12408009008011DD4A86E50B1B0F560
:10251000801F0CD0B0F5001F0ED0B0F5401F1ED0AC
:1025200001240FE0386840F40030386017E001986B
:10253000022102F0DDFB03E00098022102F068FCBA
:1025400004000CD026462888C043C00523D4A86DBB
:1025500005281ED2DFE800F00C11161B1B00AA6E26
:10256000D8F8001021F440111143C8F80010EAE730
:10257000386840F40030386009E00198002102F02A
:10258000B7FB03E00098002102F042FC044674B15E
:1025900000E0012426462888C043800528D4E86D41
:1025A00080281ED00CDC90B140280ED114E0AA6D1A
:1025B000D8F8001021F007011143C8F80010EAE72D
:1025C000C02813D0B0F5807F10D001240FE0386808
:1025D00040F40030386009E00198002102F088FBE7
:1025E00003E00098002102F013FC04469CB126464B
:1025F0002888DFF8DC92C04309F12C0940052CD46F
:10260000D5F8A800B0F5800F20D00DDCA0B1B0F552
:10261000001F0FD115E0EA6DD8F8001021F4E07129
:102620001143C8F80010E3E7B0F5C00F13D0B0F5C0
:10263000000F10D001240FE0386840F400303860FB
:1026400009E00198002102F053FB03E0009800210B
:1026500002F0DEFB04467CB126462888C043000514
:102660002DD4D5F8AC00B0F1007F21D00EDCA8B19C
:10267000B0F1807F10D116E0D5F8A820D9F800106D
:1026800021F460011143C9F80010E6E7B0F1407F82
:1026900013D0B0F1806F10D001240FE0386840F4FF
:1026A0000030386009E00198002102F021FB03E0CE
:1026B0000098002102F0ACFB044674B1264628685D
:1026C000C04380011FD4E86CD8B110280FD0202857
:1026D00012D0302815D0012414E0D5F8AC20D9F858
:1026E000001021F0E0611143C9F80010E7E73868F5
:1026F00040F40030386004E00198022102F0F8FA5A
:10270000044674B126462888C043C0042BD4286EE2
:10271000B0F5005F20D00DDCA0B1B0F5805F0FD127
:1027200015E06B48EA6C2030016821F0300111435C
:102730000160E8E7B0F5405F13D0B0F5804F10D0EE
:1027400001240FE0386840F40030386009E0019857
:10275000002102F0CDFA03E00098002102F058FBBE
:1027600004468CB126462888C043800429D4686E6C
:10277000B0F5403F23D010DC08B3B0F5803F14D053
:10278000B0F5003F0FD115E02A6ED8F8001021F403
:10279000E0411143C8F80010E5E7B0F5802F0ED0F6
:1027A000B0F5A02F0BD001240AE00198012102F01E
:1027B0009FFA03E00098012102F02AFB044694B13D
:1027C00026462888C04340042AD4D5F8B000B0F18A
:1027D000405F23D010DC08B3B0F1805F14D0B0F1BB
:1027E000005F0FD115E06A6ED8F8001021F4E021E7
:1027F0001143C8F80010E4E7B0F1804F0ED0B0F1FB
:10280000A04F0BD001240AE00198012102F070FAD8
:1028100003E00098012102F0FBFA044674B1264659
:102820002888C04300041FD4286FD8B1B0F1805F5E
:102830000ED0B0F1005F10D0012414E0D5F8B02024
:10284000D9F8001021F0E0411143C9F80010E7E782
:10285000386840F40030386004E00198012102F04B
:1028600047FA044674B126462868C043C0011ED406
:10287000A86CD0B101280ED0022811D0032814D0A2
:10288000012413E02A6FD8F8001021F040511143C1
:10289000C8F80010E8E7386840F40030386004E019
:1028A0000198022102F024FA0446ACB126462868B9
:1028B000DFF81CB0C043ABF11C0B400252D40548FA
:1028C000016841F480710160FFF794FB824611E0DA
:1028D0002C44025800480258FA48AA6C016821F0BA
:1028E000030111430160E2E7FFF784FBA0EB0A005C
:1028F000642835D8F4480068C005F5D58CBBDFF8EE
:10290000C4A3B5F8B4100AF1240ADAF8000001F4FF
:10291000407100F44070884211D0DAF80010DAF803
:10292000002021F4407142F48032CAF80020DAF825
:10293000002022F48032CAF80020CAF80010D5F82E
:10294000B400B0F5807F1AD1FFF754FB029012E07B
:10295000FFF750FB0299411A41F2883081420AD9AF
:10296000032426462878DFF85CA3C0430AF1080A4E
:10297000C00721D03CE0DAF800008007E8D5D5F8A0
:10298000B410C1F30120032858460DD0016821F48A
:102990007C510160B5F8B420DAF80010C2F30B02E4
:1029A0001143CAF80010DDE7C84A036802EA1112B1
:1029B00023F47C511143ECE7E86F182816D005DCAE
:1029C000A0B1082808D0102804D10AE020280DD092
:1029D00028280BD001240AE00198012102F088F98F
:1029E00003E00098012102F013FA044664B1264680
:1029F0002878C04380071ED4A86F062819D2DFE8C4
:102A000000F0160C11161616EA6FDAF8001021F015
:102A100038011143CAF80010EAE70198012102F0D9
:102A200067F903E00098012102F0F2F904467CB155
:102A300000E0012426462878C04340071FD4D5F87B
:102A40009400062819D2DFE800F0160C11161616AD
:102A5000AA6FDAF8001021F007011143CAF800103C
:102A6000E9E70198012102F043F903E00098012110
:102A700002F0CEF90446A4B100E0012426462878ED
:102A8000C04380062BD4D5F89000B0F1405F24D02D
:102A900011DC10B3B0F1805F15D0B0F1005F10D140
:102AA00016E0D5F89420D9F8001021F00701114361
:102AB000C9F80010E3E7B0F1804F0ED0B0F1A04F9D
:102AC0000BD001240AE00198002102F011F903E083
:102AD0000098022102F09CF9044694B12646287819
:102AE000C04340062BD4D5F89C00B0F5406F24D0ED
:102AF00011DC10B3B0F5806F15D0B0F5006F10D1B8
:102B000016E0D5F89020DAF8001021F0E0411143EA
:102B1000CAF80010E3E7B0F5805F0ED0B0F5A05F13
:102B20000BD001240AE00198002102F0E1F803E053
:102B30000098022102F06CF9044694B126462878E8
:102B4000C04300062BD4D5F8A000B0F5C04F24D068
:102B500011DC10B3B0F5005F15D0B0F5804F10D187
:102B600016E0D5F89C20D9F8001021F4E05111436B
:102B7000C9F80010E3E7B0F5004F0ED0B0F5204FD4
:102B80000BD001240AE00198002102F0B1F803E023
:102B90000098022102F03CF9044654B126462878F8
:102BA000C04300071ED4D5F88400B0F5805F0AD07A
:102BB0000FE0D5F8A020D9F8001021F460411143AE
:102BC000C9F80010EBE70098022102F021F900B1EA
:102BD0000126D5F88420DAF8001021F44051114381
:102BE000CAF800102878C043C00613D4D5F898005E
:102BF000B0F5807F05D10098022102F009F900B1FB
:102C00000126D5F89820D9F8001021F4407111431D
:102C1000C9F800102868C043000316D4D5F8A400F2
:102C200038B1B0F5803F09D0B0F5003F0BD001249A
:102C30000AE00198002102F05BF803E0009802210D
:102C400002F0E6F804468CB126462868C0434003EB
:102C500022D4D5F88800B0F5801F11D0B0F5001F40
:102C600013D0B0F5401F15D0012414E0D5F8A420EE
:102C7000D9F8001021F440311143C9F80010E4E7FD
:102C8000386840F40030386004E00098012102F018
:102C9000BFF804465CB126462868C043C00323D46D
:102CA000286DA8B1B0F5803F17D001241BE0D5F8FE
:102CB0008820DAF8001021F440111143CAF80010FE
:102CC000EAE700004C44025800480258CFFFFF00DA
:102CD000386840F40030386004E00198022102F0C6
:102CE00007F80446E4B126462868C043800005D4AE
:102CF0000098022102F08CF800B101262868C04338
:102D000080031BD4D5F88000B0B1B0F5807F0FD020
:102D1000B0F5007F10D0B0F5407F0DD001240CE05D
:102D20005A482A6D016821F4803111430160DBE7C4
:102D3000386840F400303860ECB326462868C04359
:102D4000C00207D46A6FD8F8001021F00041114387
:102D5000C8F800102868C043C00008D4D5F8B820CF
:102D6000DBF8001021F480411143CBF800102868F3
:102D7000C043800207D4EA6ED8F8001021F08071B9
:102D80001143C8F800102868C04340000CD4DBF899
:102D9000001021F40041CBF80010DBF80010D5F84A
:102DA000BC201143CBF800102868C04308D4374832
:102DB0006A6D016800E018E021F0405111430160A4
:102DC0002868C043000208D4D5F88C20DAF8001037
:102DD00021F440011143CAF8001028790024C043AF
:102DE00000F0010020430AD00FE0D5F88020DAF887
:102DF000001021F440711143CAF800109EE70198B9
:102E0000002101F075FF00B106462879C04300F0AB
:102E10000200204305D10198012101F069FF00B1B2
:102E200006462879C04300F00400204305D10198EC
:102E3000022101F05DFF00B106462879C04300F091
:102E40000800204305D10098002101F0E1FF00B106
:102E500006462879C04300F01000204305D10098B1
:102E6000012101F0D5FF00B106462879C04300F0EA
:102E70002000044304D10098022101F0C9FF00B9E9
:102E800016B10120BDE8FE8F0020FBE74C4402583C
:102E90002DE9F05F04000F467ED0DFF83882D8F8C5
:102EA000000000F00F00B8420CD2D8F8001021F05A
:102EB0000F013943C8F80010D8F8000000F00F00E7
:102EC000B84269D12078844D40070AD52069296825
:102ED00001F07001884204D9296821F07001014392
:102EE000296020787C4E361D00070AD5606931685C
:102EF00001F07001884204D9316821F0700101436A
:102F000031602078C0060AD5A069316801F4E0611B
:102F1000884204D9316821F4E061014331602078AE
:102F2000DFF8B4B180060BF1080B0CD5E169584607
:102F3000DBF8002002F07002914204D9026822F00E
:102F400070020A430260207880070AD5E068296889
:102F500001F00F01884204D9296821F00F010143D3
:102F600029602078C0073ED05B49A26828681839DC
:102F700020F47060104328606068022818D003288D
:102F800019D00968012819D0490700294ADADFF861
:102F900048A1AAF1080A00E044E0DAF8002022F093
:102FA00007020243CAF80020FFF724F8814612E026
:102FB00009688903E9E709688901E6E7C905E4E7E3
:102FC000FFF718F8A0EB090141F28830814202D9DD
:102FD0000320BDE8F09F6168DAF8000000F03800D7
:102FE000B0EBC10FECD1207880070AD5E0682968E2
:102FF00001F00F01884204D2296821F00F0101433A
:103000002960D8F80010404601F00F01B9420BD9F1
:10301000016821F00F0139430160006800F00F00E2
:10302000B84201D00120D4E7207840070AD52069B2
:10303000296801F07001884204D2296821F07001EA
:1030400001432960207800070AD56069316801F0E2
:103050007001884204D2316821F07001014331606F
:103060002078C0060AD5A069316801F4E061884281
:1030700004D2316821F4E061014331602078800698
:103080000CD5E1695846DBF8002002F0700291424D
:1030900004D2026822F070020A43026000F06CF869
:1030A0000E492A682B68C2F3032203F00F038A5CDF
:1030B000C95C02F01F0201F01F01D040084A20FA4B
:1030C00001F111600749086007480068BDE8F05F3A
:1030D000FEF7CCBF0020005218440258B265000829
:1030E0001C000024180000241000002430B500F05B
:1030F00043F80B4A0B490C4B15681468C5F30322BF
:1031000004F00F048A5C095D02F01F0201F01F0148
:10311000D040064A20FA01F119601060084630BD1F
:1031200018440258B26500081C000024180000244E
:1031300000B5FFF7DBFF05490968054AC1F3021135
:10314000515C01F01F01C84000BD00001C44025842
:10315000B265000800B5FFF7C9FF05490968054ACF
:10316000C1F30221515C01F01F01C84000BD000005
:103170001C440258B2650008454970B545480968C5
:10318000434B103B11F0380208D00111082A03D03C
:10319000102A0BD0182A0BD0084670BD1968890672
:1031A000FBD51968C1F3C101C84070BD3A4870BD74
:1031B0003749374D18310C1D24350A6809682668CF
:1031C0002D6802F0030406F00102C1F30511C5F3F6
:1031D000CC0515FB02F200EE102AB8EE400AE9B366
:1031E0002F4ADFED2E0AB7EE001A6CB1DFED2D1A73
:1031F000012C01D0022C43D002EE101A1068F8EE18
:10320000422A81EEA22A1EE01C68A40611D51B6882
:1032100001EE901A1168C3F3C103F8EE612AD84099
:1032200001EE900AC1F30800F8EE611A81EEA22ABD
:103230000BE001EE901ADFED1C2A00BFF8EE611AD8
:10324000106882EEA12AC0F3080001EE900AF8EEA1
:10325000611A40EE201A31EE810A00E015E022EEFC
:10326000000A1068C0F34620401C00EE900AF8EEF9
:10327000600A80EE201ABCEEC10A10EE100A70BD82
:1032800001EE901ADFED092AD8E7002070BD00009A
:10329000104402580090D00340787D0100000039AE
:1032A000304402580024744A0024744C20BCBE4BA5
:1032B0002DE9F05F04007DD0FF4F2078FE4D1837D8
:1032C000DFF8F493103DC00748D0D9F80000396802
:1032D00000F03800102815D0182803D101F00300A1
:1032E00002280FD06068B0F5803F12D010B1B0F561
:1032F000A02F18D0286820F480302860286820F497
:10330000802009E02868800328D560680028D2D092
:1033100024E0286840F480302860606888B1FEF7B7
:1033200069FE064609E0286840F480202860F0E73E
:10333000FEF760FE801B64286FD828688003F7D5ED
:103340000CE0FEF757FE064605E000BFFEF752FE12
:10335000801B6428F0D828688003F7D4207841F2D5
:103360000308D54E0C3E800769D5D9F800003968AE
:1033700010F038000ED0182801D188070AD0E06874
:1033800090B3296821F0190101432960FEF732FE4C
:10339000824631E02868400702D5E06800288AD0DC
:1033A000E168286820F0190008432860FEF722FE33
:1033B000824607E0DFE000BFFEF71CFEA0EB0A003C
:1033C0000228B9D828684007F6D500BFFEF70CFEE2
:1033D00040451BD82069402812D0316821F47C3147
:1033E00041EA003030602AE018E000BFFEF702FE3C
:1033F000A0EB0A0002289FD828684007F6D5E5E729
:10340000306820F47C3040F40030EBE7207C3168F9
:1034100021F0FE4141EA0060E4E70DE1286820F078
:1034200001002860FEF7E6FD824605E0FEF7E2FDBA
:10343000A0EB0A0002288DD828684007F6D420782F
:10344000C0065DD5D9F80000DFF86CB2396800F02D
:103450003800ABF1040B082810D0182803D101F074
:10346000030001280AD0E0690028286838D040F01D
:1034700080002860FEF7BEFD824623E02868C00574
:1034800023D5E069802876D11FE0206A202821D04A
:10349000316821F0F84141EA8060306030E000BFDF
:1034A00094F82010DBF8002022F07C5242EA0161FF
:1034B000CBF8001024E000BFFEF79CFDA0EB0A0053
:1034C000022898D82868C005F6D5FEF78DFD40453E
:1034D000E6D8DAE7306820F0F84040F08040DCE7DA
:1034E00020F080002860FEF785FD064605E000BF5D
:1034F000FEF780FD801B02289DD82868C005F7D400
:103500002078000729D56C4861696430002980461D
:10351000016811D041F001010160FEF76BFD064624
:1035200005E000BFFEF766FD801B0228C9D8D8F869
:1035300000008007F6D510E021F001010160FEF7E0
:1035400059FD064605E000BFFEF754FD801B02282A
:1035500072D8D8F800008007F6D42078800623D5EA
:10356000A0690028286810D040F480502860FEF739
:1035700041FD064605E036E1FEF73CFD801B0228D2
:103580005AD828688004F7D50EE020F480502860CF
:10359000FEF730FD064604E0FEF72CFD801B0228F6
:1035A0004AD828688004F7D4207840074FD5DFF840
:1035B0000C81D8F8001041F48071C8F80010FEF7B3
:1035C00019FD064605E000BFFEF714FD801B6428C8
:1035D00032D8D8F80000C005F6D5374EA06860365E
:1035E00001280AD008B1052813D0306820F0010066
:1035F0003060306820F0040002E0306840F00100E4
:103600003060A06841F2883A90B1FEF7F3FC804642
:103610000AE0306840F004003060EEE7FEF7EAFCB4
:10362000A0EB0801514507D830688007F6D50EE0B9
:10363000FEF7E0FC804607E084E000BFFEF7DAFC1E
:10364000A0EB080151457DD830688007F6D4606A48
:10365000B0B3DFF86480D9F8001008F120084FF605
:10366000F87B08F10409C1F3C2010329A8F1040A97
:1036700069D00228286820F08070286003D0FEF707
:10368000B9FC044684E0FEF7B5FC064605E000BF41
:10369000FEF7B0FC801B022877D828688001F7D499
:1036A000E26A40F2F331386854F8283F884340EA30
:1036B00002101843386004E01044025800480258D1
:1036C000B5E0217B434622894FF4FE0C208A4FF05F
:1036D000FE474902267D521E401EA1F50071C2F32D
:1036E00008088AB2761E0CEA004042EA0802024349
:1036F000504607EA06610A431A60DAF8002022F011
:103700000102CAF80020D9F80020266A22EA0B023A
:1037100042EAC602C9F80020DAF80010A26921F0D6
:103720000C011143CAF800100168E26921F002019E
:1037300011430160016841F480310160016841F486
:10374000003101E021E027E00160016841F48021BF
:103750000160016841F001010160286840F080705B
:103760002860FEF747FC044605E000BFFEF742FC78
:10377000001B022809D828688001F7D557E000BF50
:10378000FEF738FC001B022802D90320BDE8F09F99
:1037900028688001F4D44AE039680128D8F800008C
:1037A00021D0A26A01F0030393421CD1E26AC1F363
:1037B00005118A4217D1216BC0F30802491E8A42C3
:1037C00011D1616BC0F34622491E91420BD1A16B0E
:1037D000C0F30642491E914205D1E16BC0F3066079
:1037E000491E814201D00120D0E7A16C4E46D9F894
:1037F0000000C0F3CC00814219D0DAF80000554631
:1038000020F00100CAF80000FEF7F4FB4FEA0007C1
:10381000FEF7F0FBB842FBD0A26C306820EA0B0048
:1038200040EAC2003060286840F0010028600020B3
:10383000ACE700002DE9F047040029D0594A4FF0C9
:1038400000092068584B594D9042C4F8289006D082
:10385000984204D0A84202D0E1680F2918D8E16844
:103860004FF0010AE76B0831C9080AEB571671439C
:10387000904205D0984203D0A84201D0082907D829
:10388000904203D0984201D0A84204D1102902D915
:103890000120BDE8F08794F8810020B9204684F823
:1038A000809000F085F8022084F88100206801688B
:1038B00021F0010101602068A1698268B1F1806F87
:1038C00002F4F81110D16268B2F5800F01D01AB17C
:1038D0000AE0A26B22B107E0A26BB2F1805F03D1D4
:1038E000026842F4805202606068400209D5E068D4
:1038F000072806D32068236D026822F480721A43D9
:1039000003E02068026822F480720260A66AE0691F
:10391000E26B25683043E3680A4310431843A8600C
:10392000D4E90D02D4E90581636A25691843D4F806
:1039300020C00A43266810432843A56DD4E90172CC
:10394000D4E9123140EA080040EA0C003843084349
:10395000104318432843F060606868B920688168A4
:1039600021F4C05141F4006181602068816821F434
:10397000C06141F4806181602068016D21F0010126
:1039800001656068400206D52068626DC16821F05B
:1039900000411143C160C4F8849084F881A00020E4
:1039A00077E700000030014000380040003C004054
:1039B00010B586B0044614216846FCF77EFD134915
:1039C000206888421FD11248016841F4805101608B
:1039D000006800F4805005900D481038016841F0EF
:1039E0000101016000680523E02100F0010005905D
:1039F0000020009102226946CDE90120CDE90303B0
:103A00000448FEF7D5F906B010BD000000300140B3
:103A1000F0440258000002582DE9F05F0446C06BE4
:103A20009A46164689464009401C1FFA80F8FEF760
:103A3000E1FA834694F88100012838D1B9F1000FEA
:103A400073D0002EFCD094F8800001282FD0A168FC
:103A50000025012784F88070042084F88100C4F8D0
:103A60008450C4F86490E565A4F8605025676567E4
:103A70002C34B1F5C02FA687E687E58654F82C0DC7
:103A800018D0C16821F4C02141F48021C1602068B0
:103A900041686FF30F01314341602068016841F0D4
:103AA000010101606068B0F5800F08D00CE00220D1
:103AB000BDE8F09F016821F400610160E7E720683C
:103AC000016841F400710160E0680F2828D82DE0FA
:103AD000206841694269D20703D0016B606E0160C2
:103AE00008E0B4F86A3043450DD209040BD5006BE9
:103AF000616E0860606E001D6066B4F86A00401E6A
:103B0000A4F86A000CE0FEF775FAA0EB0B01514532
:103B100003D3BAF1FF3F03D0A9E0BAF1000F3ED0C2
:103B2000B4F86A000028D3D193E09EE007283AD881
:103B30008BE0206841694269D20709D0008E616E2E
:103B40000880606E801C6066B4F86A00401E14E055
:103B5000B4F86A30434513D20A0411D5008E616E61
:103B60000880606E801C60662168098E0180606E2E
:103B7000801C6066B4F86A00801EA4F86A0012E037
:103B8000B4F86A20012A01D18904D7D4FEF732FAA9
:103B9000A0EB0B01514503D3BAF1FF3F03D066E020
:103BA000BAF1000F63D0B4F86A000028C1D150E028
:103BB000206841694269D2070BD000BF90F83000FD
:103BC000616E0870606E401C6066B4F86A00401E4A
:103BD00024E0B4F86A30434523D20A0421D590F892
:103BE0003000616E0870606E401C6066216891F85C
:103BF00030100170606E401C6066216891F83010D2
:103C00000170606E401C6066216891F83010017090
:103C1000606E401C6066B4F86A00001FA4F86A0079
:103C200013E0B4F86A20042A02D211F4C04FC5D1BF
:103C3000FEF7E0F9A0EB0B01514503D3BAF1FF3FCA
:103C400003D014E0BAF1000F11D0B4F86A000028D4
:103C5000AED1204601F0C9FE84F88170D4F884000A
:103C600084F8805000283FF423AF012020E720464D
:103C700001F0BBFED4F8840084F8805040F48070DA
:103C8000C4F8840084F88170032011E72DE9F84F0F
:103C9000994617468A460446FEF7ACF9064694F85C
:103CA0008100012839D1BAF1000F7CD0002FFCD05F
:103CB00094F88000012830D0A26800254FF0010858
:103CC00084F88080032184F88110C4F88450C4F8FB
:103CD0005CA06566A4F86850656725672C34B2F56A
:103CE000C02FA786E786E58754F82C0D18D0C16849
:103CF00021F4C02141F40031C160206841686FF3B4
:103D00000F01394341602068016841F00101016001
:103D10006068B0F5800F08D00CE00220BDE8F88F95
:103D2000016841F400610160E7E72068016841F43F
:103D300000710160E0680F281CD820E0206841690C
:103D400089070BD5E16D09680162E06D001DE06532
:103D5000B4F86200401EA4F862000BE0FEF74AF9D6
:103D6000811B494503D3B9F1FF3F03D09BE0B9F173
:103D7000000F31D0B4F862000028DFD177E00728C7
:103D80002ED870E02068416989071DD5B4F862100B
:103D900001290DD9E16B59B1E16D09680162E06D4E
:103DA000001DE06500E07CE0B4F86200801E08E0E1
:103DB000E16D09880184E06D801CE065B4F8620063
:103DC000401EA4F862000BE0FEF714F9811B494580
:103DD00003D3B9F1FF3F03D065E0B9F1000F62D022
:103DE000B4F862000028CDD141E02068416989071C
:103DF0002DD5B4F8621003290CD9E16B402909D9FB
:103E0000E16D09680162E06D001DE065B4F86200D3
:103E1000001F19E0B4F8621001290BD9E16B49B118
:103E2000E16D09880184E06D801CE065B4F86200F2
:103E3000801E09E0E16D097880F82010E06D401CDB
:103E4000E065B4F86200401EA4F862000BE0FEF7E3
:103E5000D1F8811B494503D3B9F1FF3F03D022E0DC
:103E6000B9F1000F1FD0B4F862000028BDD10022C4
:103E70004B4608212046009601F016FE28B1D4F8E2
:103E8000840040F02000C4F88400204601F0ADFD1D
:103E900084F88180D4F8840084F8805000283FF4AE
:103EA0003DAF01203AE7204601F09FFDD4F8841091
:103EB00084F8805041F48071C4F8841084F88180C3
:103EC00003202BE72DE9FF4F0446C06B81B01D4650
:103ED00017464009401C1FFA80FBFEF78BF882460C
:103EE00094F881002E46012835D1029800287CD014
:103EF000002FFCD0002DFAD094F8800001282AD0A1
:103F00004FF0010984F8809005224FF0000884F8F2
:103F10008120C4F884806766A4F86A50A4F86850C9
:103F20000299E165A4F86250A4F86050C4F870806A
:103F3000C4F874802068C16821F4C021C160AC4914
:103F40002068884205D0AB49884202D0AA498842FD
:103F500005D1102704E0022005B0BDE8F08F082746
:103F600041686FF30F01294341602068016841F007
:103F7000010101606068B0F5800F04D1206801681C
:103F800041F400710160E0680F284CD9BF0838E0A7
:103F900020684169890710D57EB1F119A9420CD971
:103FA000E16D09680162E06D001DE065B4F8620032
:103FB000401EA4F86200B4F862602068416905B34D
:103FC0004269D20703D15D4510D209040ED5006BBA
:103FD000616E0860606E001D6066B4F86A00401E85
:103FE000A4F86A00B4F86A500BE0EEE0FEF702F8BD
:103FF000A0EB0A010E98814202D3401C01D004E0DC
:1040000018B156EA0500C3D1C6E0204601F0EDFC28
:10401000D4F8840084F8808040F48070C4F8840070
:1040200084F88190E0E0072879D97F084BE0206888
:104030004169890710D57EB1F119A9420CD9E16D0A
:1040400009880184E06D801CE065B4F86200401EC0
:10405000A4F86200B4F86260206841691DB3426947
:10406000D20709D0008E616E0880606E801C606689
:10407000B4F86A00401E12E05D4515D20A0413D55B
:10408000008E616E0880606E801C60662168098EFB
:104090000180606E801C6066B4F86A00801EA4F81F
:1040A0006A00B4F86A500EE0012D01D18904D9D418
:1040B000FDF7A0FFA0EB0A010E98814202D3401C3D
:1040C00001D084E060B356EA0500B0D164E0206816
:1040D0004169890711D586B1F119A9420DD9E16D60
:1040E000097880F82010E06D401CE065B4F86200AB
:1040F000401EA4F86200B4F862602068416975B19E
:104100004269D2070DD000BF90F83000616E087090
:10411000606E401C6066B4F86A00401E24E038E01F
:1041200055E05D4525D20A0423D590F83000616E34
:104130000870606E401C6066216891F83010017054
:10414000606E401C6066216891F830100170606EEE
:10415000401C6066216891F830100170606E401C50
:104160006066B4F86A00001FA4F86A00B4F86A50E8
:104170000FE0042D02D211F4C04FC5D1FDF73AFF74
:10418000A0EB0A010E98814202D3401C01D01EE030
:10419000E8B156EA05009AD10E9B0022082120467C
:1041A000CDF800A001F080FC28B1D4F8840040F0E4
:1041B0002000C4F88400204601F017FC84F88190A8
:1041C000D4F8841084F8808081B10120C4E62046B0
:1041D00001F00BFCD4F8842084F8808042F48072D3
:1041E000C4F8842084F881900320B5E60020B3E66B
:1041F0000030014000380040003C0040401EB0F15B
:10420000807F10B501D3012010BD4FF0E024606124
:104210000F21601702F049F90020A06107212161F8
:1042200010BD30B590F88410012918D0012280F813
:1042300084202421C0F888100022202401680B6803
:104240000D6823F0005325F001050D6042660168FA
:104250000B60C0F8884080F88420104630BD0220F2
:1042600030BD7047704770B5044690F8840001284F
:104270001DD0012284F884202420C4F888002068FE
:104280000568026822F0010202602068826822F05C
:1042900060620A438260204601F06EFD22682021A0
:1042A00000201560C4F8881084F8840070BD0220D6
:1042B00070BD70B5044690F8840001281DD001221D
:1042C00084F884202420C4F88800206805680268E7
:1042D00022F0010202602068826822F060420A43F4
:1042E0008260204601F048FD2268202100201560F0
:1042F000C4F8881084F8840070BD022070BD704737
:10430000704770472DE9F04107680025044640F6E4
:104310000F030226F8693968BA6818420AD1830681
:104320007ED501F0200302F0805C53EA0C0377D0C5
:10433000616F7EE1D44BDFF854C3134001EA0C0CEB
:1043400053EA0C0C6CD05FEAC07C0CD05FEAC15C15
:1043500009D54FF0010CC7F820C0D4F8907047F091
:104360000107C4F89070870709D5D70707D02768D9
:104370003E62D4F8906046F00406C4F890604607A8
:104380000AD5D60708D0276804263E62D4F8906084
:1043900046F00206C4F8906006070CD501F020062E
:1043A0001E4308D0266808233362D4F8903043F0C7
:1043B0000803C4F8903003050BD54B0109D52668D6
:1043C0004FF400633362D4F8903043F02003C4F814
:1043D0009030D4F89030002B3DD0800609D501F004
:1043E000200002F08051084303D0616F09B12046DC
:1043F00088472168D4F890008968490602D410F0F3
:10440000280F2AD0204601F0E7FD2068806840068A
:104410001ED52068083050E8001F21F0400100E060
:1044200021E040E80012002AF3D1D4F8800078B1EE
:1044300097490165D4F88000FCF7ACFC00280AD04D
:10444000D4F88000016D00E02046BDE8F041084747
:104450002046FFF756FFBDE8F0812046FFF751FFE9
:10446000C4F89050F7E7D4F86CC02023BCF1010FDA
:104470007ED15FEAC06C7BD55FEAC16C78D5102035
:10448000386220688068400673D5D4F8802081495E
:104490001068884234D07F491831884230D07D4935
:1044A000303188422CD07B494831884228D0794924
:1044B0006031884224D077497831884220D07549CC
:1044C000903188421CD07349A831884218D0724973
:1044D000884215D070491831884211D06E49303168
:1044E00088420DD06C494831884209D06A49603110
:1044F000884205D068497831884201D066499031B8
:1045000040684FF480770004000C40D0B4F85C1091
:1045100081423CD9A4F85E00D069B8422FD021680E
:1045200051E8000F20F4807041E80002002AF6D123
:104530002068083050E8001F21F0010140E8001217
:10454000002AF5D12068083050E8001F21F0400112
:1045500040E80012002AF5D1C4F88C30E5662068E6
:1045600050E8001F21F0100140E80012002A01E08D
:104570004AE019E0F3D1D4F88000FCF75BFA266733
:10458000B4F85C00B4F85E10401A81B208E0B4F8E8
:104590005C1081427FF466AFD069B842FAD12667D9
:1045A0002046FFF75EFE56E7B4F85C00B4F85E10F4
:1045B000B4F85E20401A81B2002AF4D00029F2D06B
:1045C000226852E8000F20F4907042E80007002FA4
:1045D000F6D1324F206800F1080050E8002F02EABF
:1045E000070240E8002CBCF1000FF3D1C4F88C3076
:1045F000E5666567226852E8000F20F0100042E887
:104600000003002BF6D1CAE7C60209D5560207D52A
:104610004FF4801038622046BDE8F041FFF770BECD
:1046200006060AD501F0800602F40002164304D003
:10463000A16F00297FF408AF0DE7420611D54A06A5
:104640000FD52046016851E8002F22F0400241E8D2
:104650000024002CF6D1C0F88830856700F0F4F80B
:10466000F9E6020206D54A0004D52046BDE8F0412D
:10467000FFF745BEC00196D5002994DA2046BDE873
:10468000F041FFF7EFBD0000010000102001000421
:104690002F5F00081000024010040240FEFFFFEFF1
:1046A00010B5040003D0D4F8880010B107E0012051
:1046B00010BD002084F88400204600F027F8242054
:1046C000C4F888002068016821F001010160A06A37
:1046D00010B1204601F072FB204601F0BFFC01281A
:1046E000E6D02068416821F49041416020688168EB
:1046F00021F02A0181602068016841F00101016018
:104700002046BDE8104001F0BDBB000070B586B08A
:10471000064614216846FBF7D0FE224930688842DD
:104720003DD12148016841F010010160006800F0AE
:10473000100005901C481038016841F0010101602B
:1047400000680025022100F0010005904FF4C060D0
:1047500007238DE8230003221448CDE9032369468B
:10476000FDF726FB124C2A211248402284E827003C
:1047700003152046C4E90435A561E561256265623B
:10478000FCF7BEFF08B1FCF744F90022F4672520CE
:104790001146A663FDF7F4FC2520FDF7E3FC06B007
:1047A00070BD000000100140F044025800000258A3
:1047B000940200241000024070B50446D0F888002E
:1047C000202801D0022070BD39B332B3E06F00233E
:1047D00021652125A4F85420A4F85620C4F890306F
:1047E000C4F88850D8B11549C163E16F1448086412
:1047F000E16F1448C864E06F036513462068E56FF5
:1048000000F12802216D2846FDF75CF938B110212E
:10481000C4F890102020C4F88800012070BD2168E1
:10482000402008622068083050E8001F41F08001F5
:1048300040E80012002AF5D1002070BD8D5F00080D
:10484000CD5F00083F5F000870477047FEE700003B
:10485000FEB5284C054680208DF80000218960684F
:1048600001F037FE4FF0FF362068012233466946DB
:10487000FFF70CFA30B92068062201A93346FFF78A
:10488000CBF828B12189606801F020FE0220FEBD2E
:104890002189606801F01AFEBDF80420BDF8060009
:1048A000BDF8081052BA40BA01EE102A49BA00EE1B
:1048B000100A00EE901AB8EE411A9FED0F2AB8EEDA
:1048C000400AF8EE600A31EE421ADFED0C1A30EEC3
:1048D000420A70EEC20A21EE211A002020EE210ABF
:1048E00060EEA10A85ED001A85ED010AC5ED020A08
:1048F000FEBD0000240000240000004700008039B5
:1049000010B5817A41F020028272092100F0A8F8E6
:10491000002800D0012010BD08B500206A462F21D4
:104920008DF80000054800F074F89DF8001030295B
:1049300001D1002800D0042008BD0000240000247C
:10494000124810B500F024F800281DD10F4C241F88
:10495000201DA17800F02EF8002815D12178201D07
:1049600000F03FF800280FD1201DFFF7C9FF0028F5
:104970000AD1E178201D00F041F8002804D1201D63
:10498000BDE8104000F021B810BD00002400002454
:1049900010B5802204460A2100F062F808B1022016
:1049A00010BD0F20FDF7DCF90020A072E07220732B
:1049B000607310BD10B5C27A0A43C2720A2100F0BA
:1049C0004FF8002800D0012010BD10B5017B41F048
:1049D000080202730B2100F043F8002800D00120E8
:1049E00010BD10B5027B41F080010A4302730B2118
:1049F00000F036F8002800D0012010BD10B5027B71
:104A00000A4302730B2100F02BF8002800D001208C
:104A100010BDF8B50446164641F080008DF8000040
:104A20002189606801F055FD4FF0FF3520680122B3
:104A30002B466946FFF72AF930B9206801222B4638
:104A40003146FEF7E9FF28B12189606801F03EFD9B
:104A50000220F8BD2189606801F038FD0020F8BD12
:104A600037B582B004468DF800100189406801F026
:104A700030FD4FF0FF35206801222B466946FFF7D5
:104A800005F930B92068012204A92B46FFF7FEF88A
:104A900030B12189606801F019FD022005B030BDF8
:104AA0002189606801F012FD0020F7E7094808B588
:104AB000016841F00101016000680022114600F028
:104AC000010000900B20FDF75BFBBDE808400B20C8
:104AD000FDF748BBD84402582DE9F04786B01421B1
:104AE0006846FBF7EAFC3748016841F08001016045
:104AF000016801F080010591016841F00101016048
:104B0000016801F001010591016841F004010160B3
:104B1000016801F004010591016841F002010160A2
:104B2000016801F002010591016841F01001016086
:104B300000680122DFF89080102100F0100005903D
:104B40004046FDF74BFADFF88490012210214846D9
:104B5000FDF744FADFF878A0012211465046FDF730
:104B60003DFA002669461027009701244046022599
:104B70000395CDE90146FDF71BF9009769460395BA
:104B80004846CDE90146FDF713F9039569460094BF
:104B90005046CDE90146FDF70BF920024FF488118C
:104BA0008DE823000B486946FDF702F90022172023
:104BB0001146FDF7E5FA1720FDF7D4FA06B0BDE877
:104BC000F0870000E0440258000002580008025834
:104BD000000402580010025870B5154807224FF41F
:104BE0008005124E00212C01C0E902120161E30090
:104BF000C0E90514C0E9073141625A008162C1620F
:104C0000C0E90D21C163016441648164C16401652F
:104C100041658165C0E90065FEF70CFE002803D000
:104C2000BDE87040FBF7F5BE70BD000000300140EC
:104C3000940000241848002110B5164C0C224FF4A3
:104C400061230460C0E90131C160C0E904128161DF
:104C5000C161016241628162FFF722FD08B1FBF789
:104C6000D8FE0D480021FFF724FB08B1FBF7D1FE69
:104C700009480021FFF7F7FA08B1FBF7CAFE06481A
:104C8000FFF7CFFA002803D0BDE81040FBF7C1BE04
:104C900010BD00000010014000020024FEE7FEE706
:104CA0007047F0B5B1B0C0216846FBF706FC0023A1
:104CB00041F201020520194604240A942825CDE971
:104CC00000235710CDE90B50CDE90F710226119149
:104CD000E202189210231F93CDE90D066846FDF7F6
:104CE00001FC002801D072B6FEE731B0F0BD000033
:104CF0002DE9F047454D044689464FF0000A2868E3
:104D0000C04380070AD0414E283E306820F08060C2
:104D10003060FDF76FF90746B04608E00120BDE8B6
:104D2000F08700BFFDF766F9C01B022867D8D8F8E6
:104D300000000001F6D4206829684FF4FE0721F432
:104D40007C313E0241EA00302860207AA389B4F821
:104D500004C040022D4D2D495B1E227CACF1010C9C
:104D60001035091DA0F5007080B2521ECCF3080C5E
:104D700007EA034340EA0C00184306EA02621043C4
:104D800028600868626920F0C000104308600A6863
:104D9000A06922F0200202430A60281D0A6822F05E
:104DA00010020A6002684FF6F873E4699A4342EA17
:104DB000C40202600868B9F1000F40F010020A60F6
:104DC00011D00868B9F1010F11D040F4001008604B
:104DD000D8F80000444640F08060C8F80000FDF7B5
:104DE00009F905460DE0086840F40020EFE740F4BB
:104DF0008010ECE7FDF7FEF8401B022801D90320E4
:104E00008DE720680001F5D5504688E72844025810
:104E10002DE9F047454D044689464FF0000A2868C1
:104E2000C04380070AD0414E283E306820F08050B1
:104E30003060FDF7DFF80746B04608E00120BDE826
:104E4000F08700BFFDF7D6F8C01B022867D8D8F856
:104E500000008000F6D4208829684FF4FE0721F076
:104E60007C713E0241EA00502860207AA389B4F8A0
:104E700004C040022D4D2D495B1E227CACF1010C7B
:104E80001835091DA0F5007080B2521ECCF3080C35
:104E900007EA034340EA0C00184306EA02621043A3
:104EA00028600868626920F44060104308600A685E
:104EB000A06922F4007202430A60281D0A6822F4E5
:104EC00080720A6002684FF6F873E4699A4342EA16
:104ED000C40202600868B9F1000F40F480720A60F1
:104EE00011D00868B9F1010F11D040F0807008604E
:104EF000D8F80000444640F08050C8F80000FDF7A4
:104F000079F805460DE0086840F48000EFE740F4CA
:104F10000000ECE7FDF76EF8401B022801D90320E2
:104F20008DE720688000F5D5504688E72844025870
:104F300010B592B00446684600F07AF921466846FA
:104F400000F0FAF812B010BD10B5094C0022218A09
:104F5000E068FDF743F80520FCF702FF218A0122F3
:104F6000E068FDF73BF8BDE810400A20FCF7F8BE0A
:104F7000340000242DE9F04F0024914685B09A4674
:104F8000062780460DF1040B254626464846514625
:104F9000F200FBF77FFA711CBA1BCEB202EB0B01D9
:104FA000BE4201F8010CF1D3B8F808100022D8F87D
:104FB0000400FDF713F84FF0FF300090D8F8000020
:104FC00003AA01A93B46FEF77DFFB8F808100122AD
:104FD000D8F80400FDF702F800260DF10C09B046E0
:104FE000BA1B4146D20019F80600083AFBF73FFA0F
:104FF000761C204329430446F6B20D46BE42EFD349
:1050000005B0BDE8F08FF0B587B0064610274FF425
:10501000C86567F30F02ADF80C506B00ADF81030A7
:105020001E24ADF80E5067F31F42ADF81230ADF8F4
:10503000143064F30F00CDE90126ADF8003064F3BD
:105040001F40DDE9032364F30F0100F0C4F907B04A
:1050500040B2F0BD00231A4610B509E000EBC204CF
:10506000247904F01E041C4301D0012010BD521C01
:105070008A42F3DB002010BDB0F5486F0AD0B0F5CE
:10508000C85F09D0B0F5485F08D0B0F5C84F07D069
:1050900000207047012070470220704703207047AE
:1050A0000420704708280DD004DC022806D004280C
:1050B00004D105E0102807D0202807D00020704731
:1050C000012070470220704703207047042070477A
:1050D00044280ED005DCD0B10D280CD01E2808D1F4
:1050E0000BE0EB280BD0B0F58C7F0BD0B0F5B97F7F
:1050F0000AD000207047922070474920704740F244
:105100006D107047DB2070474FF49270704740F28B
:10511000FF107047B0F5C86F07D0B0F5486F06D0E4
:10512000B0F5C85F05D0012070470220704703200A
:10513000704704207047000090ED031A9FED1E0A8F
:10514000DFED1E0AB8EEC11ADFED1D1A81EE002A4E
:1051500081ED032A90ED041AB8EEC11A81EE002AFF
:1051600081ED042A90ED051AB8EEC11A81EE002AED
:1051700081ED052A90ED090AB8EEC00A80EE201AEA
:1051800081ED091A90ED0A0AB8EEC00A80EE201AE5
:1051900081ED0A1A90ED0B0AB8EEC00A80EE201AD3
:1051A00081ED0B1A90ED0F0AB8EEC00AC0EE210A8D
:1051B000C1ED0F0A704700000000C84400004845D8
:1051C0000000C84270B50D234FF000064FF0D042EA
:1051D00000B1521C09B142F002021902100241EA68
:1051E000126105460C46FBF7CDF92843214600F035
:1051F00099F940F648551020294600F093F91020FF
:10520000294600F08FF96FF00302130C4B4073EA4C
:10521000000509D0084307D0C4F38910C1F3491130
:1052200048407640304301D0104670BD002070BD2C
:105230002DE9F04F95B00446EF204FF4227100F0B5
:1052400071F918204FF4327100F06CF98346139114
:1052500083204FF4427100F065F9074612917420E3
:105260004FF4527100F05EF98246119142204FF4E2
:10527000627100F057F981461091B5204FF47271B8
:1052800000F050F94FF481658046B1200F91294616
:1052900000F048F906460E91B120294600F042F987
:1052A0000A4613990546CDE900B11299CDE902717C
:1052B0001199CDE904A11099CDE906910F990A96AB
:1052C000CDE908810E990D92CDE90B1007216846B2
:1052D000FFF7C0FE84F840004BF31320E06047F373
:1052E000132020614AF31320606149F313206062A8
:1052F00048F31320A06246F31320E06245F30F3019
:10530000E06315B0BDE8F08F70B5040060D01C20DC
:105310004FF4A16100F006F9EB204FF4A96100F011
:1053200001F9000A40EA01604FF4B1612080DD20FC
:1053300000F0F8F8000A40EA01604FF4B9616080BB
:105340002A2000F0EFF8000A40EA01604FF4C16142
:10535000A080C42000F0E6F8000A40EA01604FF4A3
:10536000C961E080332000F0DDF8000A40EA016006
:105370004FF4D1612081052000F0D4F8000A40EA02
:1053800001604FF4D9616081F22000F0CBF8000A8F
:1053900040EA01604FF4E161A081692000F0C2F8A9
:1053A000000A4FF4E96540EA01602946E0819E2049
:1053B00000F0B8F8000A40EA0160294620829E20E9
:1053C00000F0B0F8000A40EA01606082002070BD81
:1053D0004FF0FF3070BD2DE9F04F91B0164600251B
:1053E000984607468B46DDE91B9A2C46FFF7ACFD35
:1053F0001A9880B20C901FFA8BF005901FFA88F073
:105400000E904FEA18400D904FEA19400B901FFA8A
:1054100089FBB0B20A904FEA16491FFA87F83E0C92
:105420002020FCF79DFC059A3146404600F08EF99D
:105430000A985A46494600F051FADDE90D10DDE9B7
:105440000B3200F077F8BAF1000F01D0012100E033
:105450000021002000F014F900210120FFF7B2FE26
:10546000D720FCF77DFC6846FFF74EFF0121084678
:10547000FFF7A8FE0320FCF773FC6846FFF744FF24
:105480006846FFF741FF684600F08AFA38B9FFF72F
:105490005BFD641CE4B2022CC2D36FF0020511B0B4
:1054A0002846BDE8F08FB0F5486F0AD0B0F5C85F68
:1054B00007D0B0F5485F04D0B0F5C84F01D0002048
:1054C000704701207047022809D0042807D0082817
:1054D00005D0102803D0202801D0002070470120DB
:1054E00070470D280ED01E280CD044280AD0EB2877
:1054F00008D0B0F58C7F05D0B0F5B97F02D008B1E7
:105500000020704701207047B0F5C86F07D0B0F594
:10551000486F04D0B0F5C85F01D00020704701206B
:1055200070470000024602480B46FFF723BD00000B
:10553000340000242DE9F05F14460546FFF7B3FF61
:1055400000286FF0010279D00846FFF7ACFF002871
:1055500074D02046FFF7A7FF00286FD01846FFF74A
:10556000B2FF00286AD02846FFF786FDC200084631
:10557000FFF782FD02431846D100FFF793FD024674
:105580004FF0000B114340EAC10042EAC00040F076
:10559000D040010E050241F4206628463146FAF754
:1055A000F1FF2843B14605464946FFF7BBFF2046B9
:1055B000FFF762FD40F02840010E040241F420662E
:1055C00020463146FAF7DEFF2043B0460446414606
:1055D000FFF7A8FF222040F64821FFF7A3FF40F67F
:1055E000882A14205146FFF79DFF06460F461420D7
:1055F0005146FFF797FF4FF6FF7C024687EA0C0CF7
:105600007CEA06006FF0030333D056EA070030D07F
:10561000180C484070EA020C2BD052EA010028D046
:10562000C9F3891C5846C7F349178CEA070C8BEA63
:1056300000075CEA070C1CD103E0FFE71046BDE859
:10564000F09FC8F38917C1F349114F4080EA000168
:105650000F430ED109490D400E40754080EA000607
:10566000354306D10C400A4054408BEA0B000443FA
:1056700001D01846E3E70020E1E7000000FFFF0F3C
:105680002DE9F04105460E46401C032803D36FF078
:105690000100BDE8F08140F6C8487C204446414600
:1056A000FFF740FF7C202146FFF73CFF264F0024F8
:1056B00000EA07004FEA102015B1012D04D005E0E3
:1056C0004FF6BF71084001E040F0400016B140F0D5
:1056D000200002E04FF6DF71084040F0684244F0DD
:1056E0000C0015020602284646EA12663146FAF711
:1056F00049FF054331462846FFF714FF7C20414609
:10570000FFF710FF7C204146FFF70CFF4FF6FF73B9
:105710004B4073EA000C6FF0030211D050EA010312
:105720000ED0C6F38913C1F349114B4084EA04013A
:105730000B4305D13D40384045406440254301D0EE
:105740001046A6E70020A4E700FFFF0F2DE9FC5F4D
:1057500015460E460246FFF7C4FE00286FF0010111
:105760007DD03046FFF7BDFE002878D02846FFF7F1
:10577000B8FE00287CD01046FFF7AAFC40F0D040CD
:10578000010E070241F4106438462146FAF7FAFE8A
:105790003843A34682465946FFF7C4FE3046FFF71A
:1057A00097FC40F02840010E060241F41064304698
:1057B0002146FAF7E7FE3043214681460194FFF780
:1057C000B1FE2846FFF784FC40F06840010E050258
:1057D00041F4106428462146FAF7D4FE28432146B6
:1057E00080460094FFF79EFEFA2040F64811FFF72E
:1057F00099FECC2040F68811FFF794FE05460F462F
:105800003B2040F6C811FFF78DFE04460E463B20B4
:1058100040F6C811FFF786FE4FF6FF7C024687EA86
:105820000C0C7CEA05006FF0030350D055EA07002A
:105830004DD0180C704070EA040C48D054EA0600B1
:1058400045D0180C484070EA020C40D052EA0100E2
:105850003DD00020CBF3891CC7F3491700E007E0D7
:105860008CEA070C80EA00075CEA070C2FD102E003
:105870000846BDE8FC9F019FC6F34916C7F3891788
:10588000774080EA0006374321D1009EC1F34911D9
:10589000C6F389164E4080EA00010E4317D10E4927
:1058A0000D400AEA01066E4080EA00052E430ED143
:1058B0000C4009EA0105654080EA0004254306D151
:1058C0000A4008EA010454404040044301D018460D
:1058D000CFE70020CDE7000000FFFF0F2DE9F041EA
:1058E0000446FFF711FE6FF00103E8B30846FFF727
:1058F0000BFEC8B31046FFF7E6FDA8B32046FFF73E
:1059000009FCC3000846FFF705FC03431046D90015
:10591000FFF7C8FB0143002540EAC10140EAC1018D
:1059200041F02050010E040241F420662046314629
:10593000FAF728FE204331460446FFF7F3FD40F610
:105940000827D5203946FFF7EDFDD5203946FFF76A
:10595000E9FD4FF6FF732A1F4B4073EA000718D08A
:1059600050EA010315D000E009E0C6F38913C1F342
:1059700049114B4085EA05010B430AD102E0184664
:10598000BDE8F08105496D400C40084044402C437F
:1059900001D01046F4E70020F2E7000000FFFF0FFF
:1059A00008B302884FF6FF718A421AD142888A42B0
:1059B00017D182888A4214D1C2888A4211D10289C1
:1059C0008A420ED142898A420BD182898A4208D109
:1059D000C2898A4205D1028A8A4202D1408A88421B
:1059E00001D0002070470120704710B5026840F2D6
:1059F0006F335169946944F00804946102689469B2
:105A000044F0100494610268146824F001041460E6
:105A1000026814699C4314610268936823F440434C
:105A2000936090F88120042A0CD08A060AD5D0F819
:105A3000842042F08002C0F884200268936943F019
:105A40002003936190F88120032A0CD04A060AD5DE
:105A5000D0F8842042F00402C0F8842002689369E0
:105A600043F0400393618A050AD5D0F8842042F0C0
:105A70000102C0F884200268936943F400739361C3
:105A8000C9050AD5D0F8841041F00801C0F8841087
:105A900001688A6942F480728A610021A0F862106C
:105AA000A0F86A1010BD00002DE9F0411C46164612
:105AB0000D460746DDF818800AE000BFFCF79AFAA9
:105AC000A0EB0800A04202D3601C01D00BE054B14F
:105AD0003868406935EA000007D00020B042EDD0B8
